:020000040800F2
:100000000000022091380008412E0008432E00080D
:10001000452E0008472E0008492E00080000000069
:10002000000000000000000000000000812D00081A
:100030004B2E000800000000B12D0008152E00080E
:10004000E1380008E1380008E1380008E13800082C
:10005000E1380008E1380008E1380008E13800081C
:10006000E1380008E13800088D2E0008E13800086A
:10007000E13800085D2E0008E1380008E13800088A
:10008000E1380008E1380008E1380008E1380008EC
:10009000E1380008E1380008E1380008972E000830
:1000A000E13800087D2E0008E1380008E13800083A
:1000B000E1380008E1380008E1380008E1380008BC
:1000C000E1380008E1380008E1380008E1380008AC
:1000D000E1380008E1380008E1380008E13800089C
:1000E000E1380008E1380008E1380008E13800088C
:1000F000E1380008E1380008E1380008E13800087C
:10010000E1380008E13800084D2E0008E138000809
:100110006D2E0008E1380008E1380008E1380008D9
:10012000E1380008E1380008E1380008E13800084B
:10013000E1380008E1380008E1380008E13800083B
:10014000E1380008E1380008E1380008E13800082B
:10015000E1380008E1380008E1380008E13800081B
:10016000E1380008E1380008E1380008E13800080B
:10017000E1380008E1380008E1380008000000001C
:08018000E1380008E138000835
:1001900010B5054C237833B9044B13B10448AFF3C1
:1001A00000800123237010BDD40500200000000052
:1001B000D07A000808B5034B1BB103490348AFF3DD
:1001C000008008BD00000000D8050020D07A00089B
:1001D000034613F8012B002AFBD1181A0138704787
:1001E00001F0FF01102A2BDB10F0070F08D010F8E8
:1001F000013B013A8B422DD010F0070F42B3F6D1EC
:10020000F0B441EA012141EA014122F007047FF004
:1002100000070023F0E80256083C85EA010586EA5B
:10022000010685FA47F5A3FA87F586FA47F6A5FA97
:1002300087F68EB9EED1F0BC01F0FF0102F00702A3
:1002400032B110F8013B013A83EA010313B1F8D14E
:100250000020704701387047002D06BF354603382F
:10026000073815F0010F07D1013015F4807F02BF68
:10027000013015F4C03F0130F0BC0138704700BFB9
:1002800081F0004102E000BF83F0004330B54FEA47
:1002900041044FEA430594EA050F08BF90EA020FB4
:1002A0001FBF54EA000C55EA020C7FEA645C7FEA47
:1002B000655C00F0E2804FEA5454D4EB5555B8BF6A
:1002C0006D420CDD2C4480EA020281EA030382EADB
:1002D000000083EA010180EA020281EA0303362D6D
:1002E00088BF30BD11F0004F4FEA01314FF4801C40
:1002F0004CEA113102D0404261EB410113F0004F52
:100300004FEA03334CEA133302D0524263EB430308
:1003100094EA050F00F0A780A4F10104D5F1200EA6
:100320000DDB02FA0EFC22FA05F2801841F1000101
:1003300003FA0EF2801843FA05F359410EE0A5F1D5
:1003400020050EF1200E012A03FA0EFC28BF4CF006
:10035000020C43FA05F3C01851EBE37101F00045BC
:1003600007D54FF0000EDCF1000C7EEB00006EEBC9
:100370000101B1F5801F1BD3B1F5001F0CD3490853
:100380005FEA30004FEA3C0C04F101044FEA4452AA
:1003900012F5800F80F09A80BCF1004F08BF5FEA31
:1003A000500C50F1000041EB045141EA050130BD11
:1003B0005FEA4C0C404141EB0101013C28BFB1F523
:1003C000801FE9D291F0000F04BF01460020B1FA6E
:1003D00081F308BF2033A3F10B03B3F120020CDA41
:1003E0000C3208DD02F1140CC2F10C0201FA0CF01F
:1003F00021FA02F10CE002F11402D8BFC2F1200C84
:1004000001FA02F120FA0CFCDCBF41EA0C01904039
:10041000E41AA2BF01EB0451294330BD6FEA040482
:100420001F3C1CDA0C340EDC04F11404C4F120026D
:1004300020FA04F001FA02F340EA030021FA04F37F
:1004400045EA030130BDC4F10C04C4F1200220FAD6
:1004500002F001FA04F340EA0300294630BD21FA14
:1004600004F0294630BD94F0000F83F4801306BFDA
:1004700081F480110134013D4EE77FEA645C18BFCE
:100480007FEA655C29D094EA050F08BF90EA020F65
:1004900005D054EA000C04BF1946104630BD91EA5D
:1004A000030F1EBF0021002030BD5FEA545C05D160
:1004B0004000494128BF41F0004130BD14F580049F
:1004C0003CBF01F5801130BD01F0004545F0FE4113
:1004D00041F470014FF0000030BD7FEA645C1ABF48
:1004E000194610467FEA655C1CBF0B46024650EA7F
:1004F000013406BF52EA033591EA030F41F40021AB
:1005000030BD00BF90F0000F04BF0021704730B530
:100510004FF4806404F132044FF000054FF0000105
:1005200050E700BF90F0000F04BF0021704730B5C6
:100530004FF4806404F1320410F0004548BF40429B
:100540004FF000013EE700BF42004FEAE2014FEAF0
:1005500031014FEA02701FBF12F07F4393F07F4FCB
:1005600081F06051704732F07F4208BF704793F0CE
:100570007F4F04BF41F40021704730B54FF46074E1
:1005800001F0004521F000411CE700BF50EA0102E4
:1005900008BF704730B54FF000050AE050EA01028D
:1005A00008BF704730B511F0004502D5404261EBFD
:1005B00041014FF4806404F132045FEA915C3FF43E
:1005C000D8AE4FF003025FEADC0C18BF03325FEADB
:1005D000DC0C18BF033202EBDC02C2F1200300FA8C
:1005E00003FC20FA02F001FA03FE40EA0E0021FAB1
:1005F00002F11444BDE600BF70B54FF0FF0C4CF49F
:10060000E06C1CEA11541DBF1CEA135594EA0C0F50
:1006100095EA0C0F00F0DEF82C4481EA030621EA8B
:100620004C5123EA4C5350EA013518BF52EA0335C6
:1006300041F4801143F4801338D0A0FB02CE4FF078
:100640000005E1FB02E506F00042E0FB03E54FF0A8
:100650000006E1FB03569CF0000F18BF4EF0010EA0
:10066000A4F1FF04B6F5007F64F5407404D25FEA9C
:100670004E0E6D4146EB060642EAC62141EA55514F
:100680004FEAC52040EA5E504FEACE2EB4F1FD0C91
:1006900088BFBCF5E06F1ED8BEF1004F08BF5FEA0F
:1006A000500E50F1000041EB045170BD06F00046C1
:1006B00046EA010140EA020081EA0301B4EB5C046E
:1006C000C2BFD4EB0C0541EA045170BD41F4801166
:1006D0004FF0000E013C00F3AB8014F1360FDEBF8B
:1006E000002001F0004170BDC4F10004203C35DA67
:1006F0000C341BDC04F11404C4F1200500FA05F3EA
:1007000020FA04F001FA05F240EA020001F000428A
:1007100021F0004110EBD37021FA04F642EB060100
:100720005EEA430E08BF20EAD37070BDC4F10C042A
:10073000C4F1200500FA04F320FA05F001FA04F2EE
:1007400040EA020001F0004110EBD37041F10001DA
:100750005EEA430E08BF20EAD37070BDC4F12005E5
:1007600000FA05F24EEA020E20FA04F301FA05F24D
:1007700043EA020321FA04F001F0004121FA04F2F5
:1007800020EA020000EBD3705EEA430E08BF20EAC5
:10079000D37070BD94F0000F0FD101F000464000FF
:1007A00041EB010111F4801F08BF013CF7D041EA81
:1007B000060195F0000F18BF704703F00046520085
:1007C00043EB030313F4801F08BF013DF7D043EA56
:1007D0000603704794EA0C0F0CEA135518BF95EA0C
:1007E0000C0F0CD050EA410618BF52EA4306D1D193
:1007F00081EA030101F000414FF0000070BD50EAB2
:10080000410606BF1046194652EA430619D094EA3B
:100810000C0F02D150EA013613D195EA0C0F05D125
:1008200052EA03361CBF104619460AD181EA030179
:1008300001F0004141F0FE4141F470014FF0000031
:1008400070BD41F0FE4141F4780170BD70B54FF0CC
:10085000FF0C4CF4E06C1CEA11541DBF1CEA13554C
:1008600094EA0C0F95EA0C0F00F0A7F8A4EB05042E
:1008700081EA030E52EA03354FEA013100F0888025
:100880004FEA03334FF0805545EA131343EA1263EE
:100890004FEA022245EA111545EA10654FEA0026A3
:1008A0000EF000419D4208BF964244F1FD0404F55C
:1008B000407402D25B084FEA3202B61A65EB0305B8
:1008C0005B084FEA32024FF480104FF4002CB6EB75
:1008D000020E75EB030E22BFB61A754640EA0C00F5
:1008E0005B084FEA3202B6EB020E75EB030E22BF35
:1008F000B61A754640EA5C005B084FEA3202B6EB76
:10090000020E75EB030E22BFB61A754640EA9C0034
:100910005B084FEA3202B6EB020E75EB030E22BF04
:10092000B61A754640EADC0055EA060E18D04FEAC2
:10093000051545EA16754FEA06164FEAC30343EA62
:1009400052734FEAC2025FEA1C1CC0D111F4801F2F
:100950000BD141EA00014FF000004FF0004CB6E728
:1009600011F4801F04BF01430020B4F1FD0C88BFC7
:10097000BCF5E06F3FF6AFAEB5EB030C04BFB6EBD2
:10098000020C5FEA500C50F1000041EB045170BDC5
:100990000EF0004E4EEA113114EB5C04C2BFD4EBF2
:1009A0000C0541EA045170BD41F480114FF0000E76
:1009B000013C90E645EA060E8DE60CEA135594EAF2
:1009C0000C0F08BF95EA0C0F3FF43BAF94EA0C0FF5
:1009D0000AD150EA01347FF434AF95EA0C0F7FF46A
:1009E00025AF104619462CE795EA0C0F06D152EABE
:1009F00003353FF4FDAE1046194622E750EA4106A2
:100A000018BF52EA43067FF4C5AE50EA41047FF4B2
:100A10000DAF52EA43057FF4EBAE12E74FF0FF3C17
:100A200006E000BF4FF0010C02E000BF4FF0010CE8
:100A30004DF804CD4FEA410C7FEA6C5C4FEA430C61
:100A400018BF7FEA6C5C1BD001B050EA410C0CBFB0
:100A500052EA430C91EA030F02BF90EA020F002012
:100A6000704710F1000F91EA030F58BF994208BF79
:100A700090422CBFD8176FEAE37040F00100704736
:100A80004FEA410C7FEA6C5C02D150EA013C07D18D
:100A90004FEA430C7FEA6C5CD6D152EA033CD3D0D8
:100AA0005DF8040B704700BF8446104662468C46D2
:100AB0001946634600E000BF01B5FFF7B7FF002805
:100AC00048BF10F1000F01BD4DF808EDFFF7F4FF2E
:100AD0000CBF012000205DF808FB00BF4DF808EDB9
:100AE000FFF7EAFF34BF012000205DF808FB00BFDC
:100AF0004DF808EDFFF7E0FF94BF012000205DF8FE
:100B000008FB00BF4DF808EDFFF7CEFF94BF0120B2
:100B100000205DF808FB00BF4DF808EDFFF7C4FFAB
:100B200034BF012000205DF808FB00BF4FEA410CF4
:100B30007FEA6C5C02D150EA013C0AD14FEA430CD7
:100B40007FEA6C5C02D152EA033C02D14FF0000014
:100B500070474FF0010070474FEA410212F5001252
:100B600015D211D56FF47873B3EB625212D94FEAF4
:100B7000C12343F0004343EA505311F0004F23FADE
:100B800002F018BF404270474FF00000704750EA33
:100B9000013005D111F0004008BF6FF000407047F0
:100BA0004FF00000704700BF4A0011D212F500124A
:100BB00011D20DD56FF47873B3EB62520ED44FEAB5
:100BC000C12343F0004343EA505323FA02F0704735
:100BD0004FF00000704750EA013002D14FF0FF3073
:100BE00070474FF0000070474FEA4102B2F1E04316
:100BF00024BFB3F5001CDCF1FE5C0DD901F0004C04
:100C00004FEAC0024CEA5070B2F1004F40EB830053
:100C100008BF20F00100704711F0804F21D113F17F
:100C20003872BCBF01F00040704741F480114FEAB8
:100C30005252C2F11802C2F1200C10FA0CF320FA41
:100C400002F018BF40F001004FEAC1234FEAD3235E
:100C500003FA0CFC40EA0C0023FA02F34FEA4303C8
:100C6000CCE77FEA625307D150EA01331EBF4FF051
:100C7000FE4040F44000704701F0004040F0FE406C
:100C800040F40000704700BF53B94AB9002908BFBB
:100C900000281CBF4FF0FF314FF0FF3000F074B957
:100CA000ADF1080C6DE904CE00F006F8DDF804E0C3
:100CB000DDE9022304B070472DE9F047089D0446A2
:100CC0008E46002B4DD18A42944669D9B2FA82F2FF
:100CD00052B101FA02F3C2F1200120FA01F10CFA3B
:100CE00002FC41EA030E94404FEA1C48210CBEFB73
:100CF000F8F61FFA8CF708FB16E341EA034306FBFC
:100D000007F199420AD91CEB030306F1FF3080F08A
:100D10001F81994240F21C81023E63445B1AA4B2D7
:100D2000B3FBF8F008FB103344EA034400FB07F779
:100D3000A7420AD91CEB040400F1FF3380F00A81BA
:100D4000A74240F207816444023840EA0640E41BAF
:100D500000261DB1D4400023C5E900433146BDE85B
:100D6000F0878B4209D9002D00F0EF800026C5E9FD
:100D7000000130463146BDE8F087B3FA83F6002E15
:100D80004AD18B4202D3824200F2F980841A61EB8D
:100D9000030301209E46002DE0D0C5E9004EDDE7AB
:100DA00002B9FFDEB2FA82F2002A40F09280A1EB93
:100DB0000C014FEA1C471FFA8CFE0126200CB1FBE8
:100DC000F7F307FB131140EA01410EFB03F08842E1
:100DD00008D91CEB010103F1FF3802D2884200F26E
:100DE000CB804346091AA4B2B1FBF7F007FB101100
:100DF00044EA01440EFB00FEA64508D91CEB04049E
:100E000000F1FF3102D2A64500F2BB800846A4EBF8
:100E10000E0440EA03409CE7C6F12007B34022FAE3
:100E200007FC4CEA030C20FA07F401FA06F31C4312
:100E3000F9404FEA1C4900FA06F3B1FBF9F8200C1F
:100E40001FFA8CFE09FB181140EA014108FB0EF065
:100E5000884202FA06F20BD91CEB010108F1FF3AB5
:100E600080F08880884240F28580A8F102086144C1
:100E7000091AA4B2B1FBF9F009FB101144EA0141CF
:100E800000FB0EFE8E4508D91CEB010100F1FF347A
:100E90006CD28E456AD90238614440EA0840A0FB12
:100EA0000294A1EB0E01A142C846A64656D353D0E8
:100EB0005DB1B3EB080261EB0E0101FA07F722FA0C
:100EC00006F3F1401F43C5E9007100263146BDE835
:100ED000F087C2F12003D8400CFA02FC21FA03F398
:100EE000914001434FEA1C471FFA8CFEB3FBF7F019
:100EF00007FB10360B0C43EA064300FB0EF69E423E
:100F000004FA02F408D91CEB030300F1FF382FD2D6
:100F10009E422DD9023863449B1B89B2B3FBF7F67E
:100F200007FB163341EA034106FB0EF38B4208D957
:100F30001CEB010106F1FF3816D28B4214D9023E98
:100F40006144C91A46EA004638E72E46284605E7B6
:100F50000646E3E61846F8E64B45A9D2B9EB020887
:100F600064EB0C0E0138A3E74646EAE7204694E717
:100F70004046D1E7D0467BE7023B614432E730464A
:100F800009E76444023842E7704700BF30B4036A9F
:100F900023F001030362036A4268846924F0730446
:100FA0000D682C4323F0020C8B6843EA0C03104DB0
:100FB000A84203D005F58065A84205D123F00803B7
:100FC000CD682B4323F00403094DA84203D005F557
:100FD0008065A84205D122F440724D692A438D698B
:100FE0002A43426084614A684263036230BC7047AE
:100FF0000000014030B4036A23F480730362036A83
:101000004268C46924F0730C0C6844EA0C0523F4AC
:1010100000738C6843EA0423114CA04203D004F50A
:101020008064A04206D123F40063CC6843EA042321
:1010300023F480630A4CA04203D004F58064A042EC
:1010400007D122F440524C6942EA04128C6942EA08
:1010500004124260C5614A68C263036230BC7047D3
:101060000000014030B4036A23F480530362036A32
:101070004468C26922F4E6420D6842EA052223F47C
:1010800000538D6843EA0533094DA84203D005F5A6
:101090008065A84204D124F480444D6944EA851453
:1010A0004460C2614A680264036230BC704700BF9A
:1010B00000000140022380F83D300268936803F08D
:1010C0000703062B03D0136843F0010313600123C9
:1010D00080F83D30002070470268D36843F0010378
:1010E000D3600268936803F00703062B03D01368EC
:1010F00043F001031360002070470268D36823F0B7
:101100000103D3600368196A41F21112114208D138
:10111000196A40F24442114203D11A6822F00102D6
:101120001A6000207047704770477047704710B5CD
:10113000044603681A6912F0020F11D0DA6812F03F
:10114000020F0DD06FF002021A61012303770368CA
:101150009B6913F0030F70D0FFF7E6FF002323779E
:1011600023681A6912F0040F12D0DA6812F0040F23
:101170000ED06FF004021A610223237723689B6963
:1011800013F4407F5FD02046FFF7CEFF0023237784
:1011900023681A6912F0080F12D0DA6812F0080FEB
:1011A0000ED06FF008021A61042323772368DB69ED
:1011B00013F0030F4ED02046FFF7B6FF002323772E
:1011C00023681A6912F0100F12D0DA6812F0100FAB
:1011D0000ED06FF010021A61082323772368DB69B1
:1011E00013F4407F3DD02046FFF79EFF0023237776
:1011F00023681A6912F0010F03D0DA6812F0010FA8
:1012000036D123681A6912F0800F03D0DA6812F021
:10121000800F34D123681A6912F0400F03D0DA68C6
:1012200012F0400F32D123681A6912F0200F03D058
:10123000DA6812F0200F30D110BDFFF774FF20469E
:10124000FFF773FF8AE72046FFF76DFF2046FFF7A1
:101250006CFF9BE72046FFF766FF2046FFF765FF20
:10126000ACE72046FFF75FFF2046FFF75EFFBDE7D4
:101270006FF001021A61204603F0C4FAC1E76FF073
:1012800080021A61204600F061FAC3E76FF0400265
:101290001A612046FFF74AFFC5E76FF020021A6186
:1012A000204600F052FAC7E70368304A904212D055
:1012B000B0F1804F0FD0A2F57C4290420BD002F5E6
:1012C0008062904207D002F58062904203D002F51E
:1012D0007842904203D123F070034A681343234AB3
:1012E00090422AD0B0F1804F27D0A2F57C429042A4
:1012F00023D002F5806290421FD002F580629042B6
:101300001BD002F57842904217D002F570529042FD
:1013100013D002F5806290420FD002F580629042B5
:101320000BD0A2F59832904207D002F5806290422D
:1013300003D002F58062904203D123F44073CA685F
:10134000134323F080034A69134303608B68C3622D
:101350000B688362054B984203D003F58063984283
:1013600001D10B6903630123436170470000014011
:10137000B0B110B5044690F83D3063B1022384F853
:101380003D30214651F8040BFFF78EFF012384F80E
:101390003D30002010BD80F83C3002F099F9EDE7B7
:1013A00001207047B0B110B5044690F83D3063B1EC
:1013B000022384F83D30214651F8040BFFF774FFF7
:1013C000012384F83D30002010BD80F83C3002F04D
:1013D0005BF8EDE70120704700284CD0F8B50C46CB
:1013E000054690F83D30002B40D0022385F83D3073
:1013F0002A68936823F4804323F007039360294607
:1014000051F8040BFFF750FF29688A688B690E6A50
:101410002068104323F4407C2CF0030CA268A369DD
:1014200042EA032343EA0C0323F47C4323F0FC0346
:10143000E269E76847EA022C4CEA030C226A1303CC
:10144000226943EA021343EA0C0326F0AA06626803
:10145000646942EA04123243886029688B612B6810
:101460001A62012385F83D300020F8BD80F83C3039
:1014700001F026FFB9E701207047000030B4036A8D
:1014800023F010030362036A4468826922F4E6428F
:101490000D6842EA052223F020038D6843EA051314
:1014A000114DA84203D005F58065A84206D123F06E
:1014B0008003CD6843EA051323F040030A4DA84298
:1014C00003D005F58065A84207D124F440644D6936
:1014D00044EA85048D6944EA8504446082614A686F
:1014E0008263036230BC70470000014038B590F859
:1014F0003C30012B66D004460D46012380F83C3079
:10150000022380F83D300C2A1AD8DFE802F00719D0
:101510001919201919193419191947000068FFF70A
:1015200035FD2268936943F008039361226893694B
:1015300023F0040393612268936929690B43936143
:10154000012384F83D30002084F83C0038BD006859
:10155000FFF794FF2268936943F400639361226864
:10156000936923F48063936122689369296943EA4C
:1015700001239361E4E70068FFF73CFD2268D3692B
:1015800043F00803D3612268D36923F00403D361D5
:101590002268D36929690B43D361D1E70068FFF75B
:1015A00061FD2268D36943F40063D3612268D36983
:1015B00023F48063D3612268D369296943EA012354
:1015C000D361BDE70220C1E701F01F01012303FA47
:1015D00001FC036A23EA0C030362036A02FA01F1C5
:1015E0000B4303627047000010B5044601220068F7
:1015F000FFF7EAFF23680B4A934203D002F58062AB
:10160000934203D15A6C42F400425A6422689368B0
:1016100003F00703062B03D0136843F001031360A4
:10162000002010BD0000014010B5044661B104293E
:1016300016D0012200210068FFF7C6FF0122042115
:101640002068FFF7C1FF04E0012200210068FFF7D6
:10165000BBFF2268136843F001031360002010BD34
:10166000012204210068FFF7AFFFF2E790F83C3059
:10167000012B3DD010B4012380F83C30022380F8C8
:101680003D3003685A689C6822F0700C0A6842EA90
:101690000C025A600368174A93421AD0B3F1804F84
:1016A00017D0A2F57C42934213D002F58062934298
:1016B0000FD002F5806293420BD002F5784293423C
:1016C00007D002F57052934203D0A2F594329342B0
:1016D00004D124F080044A6814439C60012380F8FC
:1016E0003D30002380F83C3018465DF8044B7047CD
:1016F000022070470000014090F83C30012B22D0BE
:10170000012380F83C30CB6823F440738A6813438C
:1017100023F480634A68134323F400630A68134385
:1017200023F480530A69134323F400534A69134393
:1017300023F48043CA69134302685364002380F88A
:101740003C30184670470220704770477047026867
:10175000D36823F0C003D360202380F8393070476A
:101760000268D36823F49073D3600268536923F04E
:1017700001035361202380F83A30704790F83930E4
:10178000DBB2212B01D0022070478368B3F5805F64
:1017900017D0036A5A1C02621A7803685A60C38C15
:1017A0009BB2013B9BB2C3844BB90268D36823F060
:1017B0008003D3600268D36843F04003D360002005
:1017C0007047036A1B880268C3F308035360036908
:1017D0001BB9036A02330362E1E7036A0133036260
:1017E000DDE7000038B504460268136923F440536E
:1017F000C1680B4313618368026913434269134351
:10180000C2691A430168CB6823F4164323F00C0322
:101810001343CB600268536923F4407381690B431F
:101820005361C369B3F5004F35D00368604A9342F2
:1018300000F0918002F58062934200F08C8000F00D
:10184000A1FD0021031849411B1841F10001C90005
:1018500041EA5371DB00181863684FEA83024FEACC
:10186000937341F10001FFF70FFA524DA5FB0032CF
:101870005109642303FB11031B013233A5FB03232E
:101880005B0903F0F00202EB011203F00F03216881
:1018900013448B608AE00368454A93422FD002F5D7
:1018A000806293422BD000F06DFD0023021843EBC1
:1018B0000301121841F10001C90041EA5271D2003E
:1018C000101841F10001626892185B41FFF7DCF9E2
:1018D000384DA5FB00325109642303FB1103DB00E3
:1018E0003233A5FB03235B095A0002F4F87202EBC2
:1018F000011203F00703216813448B6056E000F0E7
:1019000051FD0023021843EB0301121841F10001BD
:10191000C90041EA5271D200101841F10001626819
:1019200092185B41FFF7B0F9224DA5FB0032510937
:10193000642303FB1103DB003233A5FB03235B09A4
:101940005A0002F4F87202EB011203F00703216857
:1019500013448B602AE000F025FD00210318494163
:101960001B1841F10001C90041EA5371DB0018184E
:1019700063684FEA83024FEA937341F10001FFF776
:1019800083F90C4DA5FB00325109642303FB1103BD
:101990001B013233A5FB03235B0903F0F00202EBCA
:1019A000011203F00F03216813448B6038BD00BFA0
:1019B000001001401F85EB5158B310B5044690F854
:1019C00039300BB3242384F839302268D36823F4E8
:1019D0000053D3602046FFF705FF2268136923F404
:1019E000904313612268536923F02A0353612268EC
:1019F000D36843F40053D3600020E063202384F8CD
:101A0000393084F83A3010BD80F8383001F0B4FE37
:101A1000D8E701207047000030B583B0044690F845
:101A20003A00C0B220283CD100293DD0002A3DD048
:101A300094F83830012B3BD0012384F83830A16270
:101A4000A2850025E563222384F83A30636B1948A8
:101A5000D863636B18481864636B1848D864636B69
:101A60001D65206813460A46011D606B00F0ACFE40
:101A7000019523681A6801925A680192019A84F8C4
:101A80003850DA6842F48072DA602268536943F0B1
:101A9000010353612268536943F0400353612846B0
:101AA00000E0022003B030BD0120FBE70120F9E790
:101AB0000220F7E7DD1A0008BB1B0008C71B00085F
:101AC000704708B50168CA6822F04002CA60202247
:101AD00080F83920FFF7F4FF002008BD08B5034661
:101AE000806B1B681B6813F4807F13D10023C385B0
:101AF0000268D36823F48073D3600268536923F0CB
:101B0000010353610268536923F0400353612023AA
:101B100080F83A3003F0B0F808BD08B590F83A30D4
:101B2000DBB2222B46D18368B3F5805F0FD0036907
:101B30000BBB03685A68836A591C81621A70C38D93
:101B40009BB2013B9BB2C385F3B1002008BD826A02
:101B5000036943B903685B68C3F308031380836AAE
:101B600002338362EBE703685B68DBB21380836A4E
:101B700001338362E3E703685B68826A511C816218
:101B800003F07F031370DAE70268D36823F02003C1
:101B9000D3600268D36823F48073D360026853690A
:101BA00023F001035361202380F83A3003F064F8F6
:101BB0000020CBE70220C9E7704708B5806BFFF72C
:101BC000FBFF08BD704710B5846B23685A6994F811
:101BD0003930DBB2212B10D023685A6902F0400261
:101BE00094F83A30DBB2222B11D0E36B43F01003B0
:101BF000E3632046FFF7E6FF10BD02F08002002AF3
:101C0000EAD00023E3842046FFF7A1FDE4E7002AA1
:101C1000EBD00023E3852046FFF7A2FDE5E70000B7
:101C200010B5044602681368D168526913F00F00BA
:101C300005D113F0200F02D011F0200F13D128B1DD
:101C400012F0010213D111F4907F10D113F0800F24
:101C500002D011F0800F6CD113F0400F02D011F0C0
:101C6000400F6AD110BD2046FFF757FFFAE713F087
:101C7000010F06D011F4807F03D0E06B40F001002B
:101C8000E06313F0040F04D01AB1E06B40F00200DF
:101C9000E06313F0020F04D01AB1E06B40F00400CF
:101CA000E06313F0080F07D011F0200F00D11AB134
:101CB000E26B42F00802E263E26B002AD2D013F03A
:101CC000200F02D011F0200F21D123685B6903F0AF
:101CD0004003E26B12F0080F00D123B32046FFF758
:101CE0003FFD23685A6912F0400F18D05A6922F05C
:101CF00040025A61636B73B1124A1A65606B00F05F
:101D000098FD0028AED0606B036D9847AAE7204687
:101D1000FFF703FFD9E72046FFF754FFA2E720466D
:101D2000FFF750FF9EE72046FFF74CFF0023E363D9
:101D300098E72046FFF722FD94E72046FFF7C1FE13
:101D400090E700BF491D000808B5806B0023C385DC
:101D5000C384FFF737FF08BD002800F0DA8170B5B3
:101D600082B00446036813F0010F3BD09F4B9B6881
:101D700003F00C03042B2CD09C4B9B6803F00C034A
:101D8000082B21D06368B3F5803F4FD0B3F5A02F67
:101D900052D0964B1A6822F480321A601A6822F4E4
:101DA00080221A606368002B50D000F0C1FE054607
:101DB0008E4B1B6813F4003F14D100F0B9FE401B9A
:101DC0006428F5D90320ABE1884B5B6813F4800FDE
:101DD000D8D0864B1B6813F4003F03D06368002BF8
:101DE00000F09981236813F0020F54D07F4B9B6859
:101DF00013F00C0F3ED07D4B9B6803F00C03082BB7
:101E000033D0E368002B68D0794B01221A6000F0D0
:101E10008FFE0546754B1B6813F0020F54D100F07E
:101E200087FE401B0228F5D9032079E16F4A136829
:101E300043F480331360B5E76C4B1A6842F4802298
:101E40001A601A6842F480321A60ABE700F070FE44
:101E50000546664B1B6813F4003FC3D000F068FED4
:101E6000401B6428F5D903205AE1604B5B6813F4EA
:101E7000800FC6D15D4B1B6813F0020F03D0E368DF
:101E8000012B40F04A81594A136823F0F803216975
:101E900043EAC1031360236813F0080F42D063695B
:101EA0006BB3534B0122C3F8802E00F041FE054670
:101EB0004E4B5B6F13F0020F34D100F039FE401B24
:101EC0000228F5D903202BE1484A136823F0F803D0
:101ED000216943EAC1031360DDE7454B00221A6024
:101EE00000F026FE0546414B1B6813F0020FD2D0CE
:101EF00000F01EFE401B0228F5D9032010E13C4BE8
:101F00000022C3F8802E00F013FE0546374B5B6FAE
:101F100013F0020F06D000F00BFE401B0228F5D98B
:101F20000320FDE0236813F0040F77D02F4B1B6CC8
:101F300013F0805F33D1002301932C4B1A6C42F0D5
:101F400080521A641B6C03F080530193019B01259E
:101F5000284B1B6813F4807F23D0A368012B34D057
:101F6000052B38D0214B1A6F22F001021A671A6F25
:101F700022F004021A67A368002B3DD000F0D8FDC0
:101F800006461A4B1B6F13F0020F46D100F0D0FD2E
:101F9000801B41F288339842F3D90320C0E000252A
:101FA000D6E7144A136843F48073136000F0C0FD51
:101FB0000646104B1B6813F4807FCED100F0B8FDAD
:101FC000801B0228F5D90320AAE0084A136F43F0CA
:101FD00001031367CFE7054B1A6F42F004021A673B
:101FE0001A6F42F001021A67C5E700BF00380240CD
:101FF000000047420070004000F09AFD06464F4B3B
:102000001B6F13F0020F08D000F092FD801B41F20D
:1020100088339842F3D9032082E0E5B9A369002B05
:102020007DD0464A926802F00C02082A51D0022B59
:1020300017D0434B00221A6600F07AFD04463F4B4E
:102040001B6813F0007F42D000F072FD001B0228D5
:10205000F5D9032064E0394A136C23F080531364EC
:10206000DCE7374B00221A6600F062FD0546334B71
:102070001B6813F0007F06D000F05AFD401B0228B9
:10208000F5D903204CE0E369226A1343626A43EA0C
:102090008213A26A5208013A43EA0243E26A43EA1F
:1020A0000263264A5360264B01221A6600F040FD67
:1020B0000446224B1B6813F0007F06D100F038FD68
:1020C000001B0228F5D903202AE0002028E0002088
:1020D00026E0012B26D0194B9B6803F48001E269AE
:1020E000914221D103F03F02216A8A421ED1616AE6
:1020F00047F6C0721A408A421AD103F44032A16AEC
:102100008A4217D103F07063E26A934214D100202F
:1021100006E001207047012002E0012000E00020DD
:1021200002B070BD0120FBE70120F9E70120F7E7CD
:102130000120F5E70120F3E70120F1E70038024034
:102140000000474208B5314B9B6803F00C03042B99
:1021500057D0082B57D12D4B5A6802F03F025B68CD
:1021600013F4800F2AD0294B5968C1F3881C4FEA19
:102170004C11B1EB0C006EEB0E0E4FEA8E1343EADE
:1021800090638101091A63EB0E03DB0043EA51738C
:10219000C90011EB0C0C43F10003590200234FEA74
:1021A0004C2041EADC51FEF76FFD184B5B68C3F32E
:1021B000014301335B00B0FBF3F025E0134B59689A
:1021C000C1F3881C4FEA4C11B1EB0C006EEB0E0E04
:1021D0004FEA8E1343EA90638101091A63EB0E0301
:1021E000DB0043EA5173C90011EB0C0C43F100030F
:1021F000990200234FEA8C2041EA9C51FEF744FDEE
:10220000D3E7034800E0034808BD00BF00380240A0
:1022100000127A000024F400002800F09B8070B5C2
:102220000D4604464F4B1B6803F00F038B4208D248
:10223000CBB24C4A1370136803F00F038B4240F08B
:102240008B80236813F0020F17D013F0040F04D013
:10225000454A936843F4E0539360236813F0080FF2
:1022600004D0414A936843F4604393603E4A9368C4
:1022700023F0F003A1680B439360236813F0010F70
:1022800032D06368012B21D09A1E012A25D9364A03
:10229000126812F0020F61D033498A6822F00302FB
:1022A00013438B6000F044FC06462F4B9B6803F001
:1022B0000C036268B3EB820F16D000F039FC801B70
:1022C00041F288339842F0D9032042E0264A12684E
:1022D00012F4003FE0D101203BE0234A126812F0E3
:1022E000007FD9D1012034E01E4B1B6803F00F039F
:1022F000AB4207D9EAB21B4B1A701B6803F00F03FD
:10230000AB422DD1236813F0040F06D0164A936810
:1023100023F4E053E1680B439360236813F0080F44
:1023200007D0114A936823F46043216943EAC1034B
:102330009360FFF707FF0C4B9B68C3F303130B4A33
:10234000D35CD8400A4B18600A4B186800F0CAFDED
:10235000002070BD012070470120FAE70120F8E756
:102360000120F6E7003C024000380240F07A000805
:102370000C00002008000020014B1868704700BFC7
:102380000C00002008B5FFF7F7FF044B9B68C3F370
:102390008223034AD35CD84008BD00BF0038024006
:1023A000007B000808B5FFF7E7FF044B9B68C3F309
:1023B0004233034AD35CD84008BD00BF0038024016
:1023C000007B00080F2303600B4B9A6802F00302A6
:1023D00042609A6802F0F00282609A6802F4E05269
:1023E000C2609B68DB0803F4E0530361034B1B6886
:1023F00003F00F030B60704700380240003C0240BE
:1024000000230F2B00F2DA80F0B583B03AE0072208
:1024100000E00022AA4032430234694D45F82420EE
:10242000684A14686FEA0C0224EA0C054E6816F438
:10243000803F01D04CEA0405624C2560646802EAE2
:1024400004054E6816F4003F01D04CEA04055D4CCB
:102450006560A46802EA04054E6816F4801F01D086
:102460004CEA0405574CA560E46822404D6815F419
:10247000001F01D04CEA0402524CE26001330F2BE2
:1024800000F29A8001229A400C6804EA020C32EAB7
:102490000404F3D14C68651E012D03D9112C01D021
:1024A000122C12D185685E000324B44025EA04058D
:1024B000CC68B4402C438460456825EA02054C682A
:1024C000C4F300129A402A434260C5684FEA430EA3
:1024D000032404FA0EF4E24325EA04058C6804FAA6
:1024E0000EF42C43C4604C68022C01D0122C0FD186
:1024F000DD08083550F8257003F00704A6000F2406
:10250000B44027EA04070C69B4403C4340F8254036
:10251000046814404A6802F0030202FA0EF22243F1
:1025200002604A6812F0805FA8D000220192264A19
:10253000546C44F480445464526C02F4804201921E
:10254000019A9C08A51C1E4A52F8256003F003025C
:1025500095000F22AA4026EA02061C4A90423FF448
:1025600058AF02F5806290421AD002F58062904224
:1025700018D002F58062904216D002F58062904237
:1025800014D002F58062904212D002F5806290422F
:1025900010D002F5806290423FF439AF082239E74B
:1025A000012237E7022235E7032233E7042231E72D
:1025B00005222FE706222DE703B0F0BD704700BFCC
:1025C00000380140003C0140003802400000024059
:1025D0000AB181617047090481617047704700004A
:1025E00008B5054B5B69034200D108BD024B586139
:1025F000FFF7F4FFF9E700BF003C014030B4056885
:102600002C6824F480242C60046863608368402B69
:1026100005D0036899600368DA6030BC70470368CE
:102620009A600368D960F8E710B40368D9B210392A
:102630000C4AA2FB014212090B4CA25CC2655F2945
:1026400009D923F47F7323F0030304338365806D7A
:102650005DF8044B704723F47F7323F00303836515
:10266000F5E700BFABAAAAAAE87A0008836A8269E4
:1026700092B9012B0AD0022B02D00BB10020704777
:10268000C36A13F0807F28D100207047C36AB3F17A
:10269000C07F24D000207047B2F5005F09D0022B24
:1026A00025D9032B25D1C36A13F0807F23D10020C5
:1026B0007047032B03D8DFE803F01404140A00204A
:1026C0007047C36A13F0807F0DD100207047C36A42
:1026D000B3F1C07F09D0002070470120704701206E
:1026E000704701207047012070470120704701208A
:1026F00070470020704701207047000070B5044605
:1027000000F016FA002C5BD00546002384F8343024
:10271000022384F835302268136823F00103136024
:1027200023681A6812F0010F0AD000F001FA431B67
:10273000052BF5D920236365032084F8350070BD8F
:102740001A68204810406168A2680A43E1680A4399
:1027500021690A4361690A43A1690A43E1690A439D
:10276000216A0A430243616A04291ED01A6026685E
:10277000756925F00705636A1D43042B07D1A36A19
:102780001D43E36A1BB12046FFF770FF90B97561E6
:102790002046FFF749FFE26D3F239340836000200E
:1027A0006065012384F83530C9E7E16A206B014395
:1027B0000A43DBE740236365012084F83500BEE768
:1027C0000120BCE73F8010F038B50446856D90F8D5
:1027D000340001282BD0012084F8340094F835000F
:1027E000C0B2012804D0002384F83430022038BD60
:1027F000022084F83500002060652046FFF7FEFEC9
:10280000E26D3F239340AB602268136843F01603E8
:102810001360236C23B12268136843F0080313602C
:102820002268136843F0010313600020DFE70220F1
:10283000DDE790F83530DBB2022B03D0802343650F
:1028400001207047052380F835300268136823F0B3
:102850000103136000207047F0B583B004460023E5
:102860000193724B1D68724BA3FB0535AD0A876D52
:102870003E68C26D08239340334210D003681A6843
:1028800012F0040F0BD01A6822F004021A60C26D15
:1028900008239340BB60436D43F001034365E26D41
:1028A00001239340334209D02268526912F0800F0D
:1028B00004D0BB60636D43F002036365E26D0423E3
:1028C0009340334209D02268126812F0020F04D0FC
:1028D000BB60636D43F004036365E26D10239340B6
:1028E000334224D02268126812F0080F1FD0BB6058
:1028F00023681A6812F4802F0DD01B6813F4002F80
:1029000004D1236C9BB12046984710E0A36C73B1AF
:10291000204698470BE01A6812F4807F03D11A68AA
:1029200022F008021A60236C0BB120469847E26D32
:1029300020239340334255D02268126812F0100FC2
:1029400050D0BB6094F83530DBB2052B0ED0236835
:102950001A6812F4802F33D01B6813F4002F2AD189
:10296000636C002B3ED0204698473BE022681368FA
:1029700023F0160313602268536923F08003536128
:10298000236CA3B12268136823F008031360E26D7F
:102990003F239340BB60002384F83430012384F844
:1029A0003530236D002B3FD0204698473CE0A36C88
:1029B000002BE7D1EBE7E36BA3B12046984711E08A
:1029C0001A6812F4807F09D11A6822F010021A6086
:1029D000002384F83430012384F83530E36B0BB1E5
:1029E00020469847636DFBB1636D13F0010F17D05C
:1029F000052384F835302268136823F0010313603F
:102A0000019B01330193AB4204D823681B6813F088
:102A1000010FF5D1002384F83430012384F83530D8
:102A2000E36C0BB12046984703B0F0BD0C000020CA
:102A3000B5814E1B074AD36823F4E0631B041B0CCB
:102A4000000200F4E060034343F0BF6343F400334B
:102A5000D360704700ED00E000B5194BDB68C3F3AD
:102A60000223C3F1070CBCF1040F28BF4FF0040C84
:102A700003F1040EBEF1060F18D9033B4FF0FF3EE1
:102A80000EFA0CFC21EA0C0199400EFA03F322EA3B
:102A90000303194300280BDB0901C9B200F16040B0
:102AA00000F5614080F800135DF804FB0023E5E7C2
:102AB00000F00F000901C9B2024B1954F4E700BF3E
:102AC00000ED00E014ED00E0002807DB00F01F023D
:102AD000400901239340024A42F82030704700BF6A
:102AE00000E100E008B50B4B1A6842F400721A606E
:102AF0001A6842F480621A601A6842F480721A609E
:102B00000320FFF797FF002000F0ECF900F0C8F970
:102B1000002008BD003C0240034A1168034B1B78AB
:102B20000B441360704700BFF00500200400002034
:102B3000014B1868704700BFF005002038B5044607
:102B4000FFF7F6FF0546B4F1FF3F02D0044B1B78B8
:102B50001C44FFF7EDFF401BA042FAD338BD00BF75
:102B60000400002043684B609A688A605160996055
:102B70000861036801330360704703694168826834
:102B80008A60416851605A68824206D00022026120
:102B90001A68013A1A601868704782685A60F5E747
:102BA000084B1B681B6823B9074B4FF0FF321A60B4
:102BB0007047044B1B68DB68DB685A68024B1A607D
:102BC000704700BFF805002098060020F8B53A4B82
:102BD0001B68002B64D1394B1D6801351D60C5B9D8
:102BE000374B1B681B6843B14FF0500383F31188C8
:102BF000BFF36F8FBFF34F8FFEE7314A1168314B40
:102C0000186810601960304A136801331360FFF7C9
:102C1000C7FF2E4B1B68AB4238D900272C4B1B68D3
:102C2000DB6A03EB83039A002A4B9B58012B3CD9A8
:102C300001273AE00127224B1B681B6843B3204B56
:102C40001B68DB68DC6863689D4226D3261D30461E
:102C5000FFF793FFA36A1BB104F11800FFF78DFF84
:102C6000E36A01229A401C49086802430A6003EBA8
:102C700083039A00314617481044FFF773FFE26A56
:102C8000134B1B68DB6A9A42D4D2D4E70027D2E701
:102C90000E4B4FF0FF321A60C0E70C4A1360BDE7DD
:102CA0000E4A13680133136000270D4B1B6803B1F4
:102CB00001273846F8BD00BF90060020A00600207E
:102CC000F8050020FC0500209C0600209806002046
:102CD000F405002000060020940600208C06002049
:102CE000A4060020204B1B681BB1204B01221A6058
:102CF00070471E4B00221A601D4B1B68B3FA83F30A
:102D0000DBB2C3F11F0303EB83018A0019498A5820
:102D100042B94FF0500383F31188BFF36F8FBFF3B5
:102D20004F8FFEE7134903EB830082000A4450688B
:102D30004068506003EB830C4FEA8C020832114468
:102D4000884209D003EB83039A000A4B13445B6863
:102D5000DA68094B1A607047406862469100054A7C
:102D60000A445060EEE700BF90060020A406002051
:102D70009406002000060020F4050020000000005A
:102D8000074B19680868B0E8F04F80F30988BFF373
:102D90006F8F4FF0000080F311887047AFF3008011
:102DA000F40500200000000000000000000000000A
:102DB000EFF30980BFF36F8F154B1A681EF0100FE9
:102DC00008BF20ED108A20E9F04F10602DE90900BE
:102DD0004FF0500080F31188BFF34F8FBFF36F8F18
:102DE000FFF780FF4FF0000080F3118809BC1968DD
:102DF0000868B0E8F04F1EF0100F08BFB0EC108A62
:102E000080F30988BFF36F8F704700BFAFF3008076
:102E1000F405002008B54FF0500383F31188BFF389
:102E20006F8FBFF34F8FFFF7D1FE28B14FF0E02334
:102E30004FF08052C3F8042D002383F3118808BD9E
:102E40007047FEE7FEE7FEE7FEE7704708B5024879
:102E5000FEF76DF908BD00BFA806002008B50248BE
:102E6000FFF7FAFC08BD00BFA808002008B502481B
:102E7000FEF7D6FE08BD00BF0809002008B50248CD
:102E8000FEF755F908BD00BF2807002008B510203F
:102E9000FFF7A6FB08BD08B52020FFF7A1FB08BD82
:102EA00000B583B0002200920D4B596C41F4804173
:102EB0005964596C01F48041009100990192196C98
:102EC00041F0805119641B6C03F080530193019B06
:102ED0000F216FF00100FFF7BFFD03B05DF804FBA9
:102EE0000038024010B588B0014600223220FFF7BA
:102EF000B3FD3220FFF7E8FD00240194144B1A6C57
:102F000042F008021A641B6C03F008030193019B52
:102F100002A903A8FFF756FAFFF734FA43000D4859
:102F2000A0FB03239B0C013B0B480C4A026040F2C0
:102F3000E732C260436004618460FEF719FA10B1A1
:102F4000012008B010BD0448FEF7C6F8F9E700BF3D
:102F50000038024083DE1B43A8060020000C00401E
:102F6000054BD3F8882042F47002C3F888204FF054
:102F700000629A60704700BF00ED00E02DE9F04765
:102F80008CB000240794089409940A940B9401943B
:102F9000534B1A6B42F010021A631A6B02F01002C4
:102FA0000192019A02941A6B42F004021A631A6B9E
:102FB00002F004020292029A03941A6B42F0800219
:102FC0001A631A6B02F080020392039A04941A6B3C
:102FD00042F001021A631A6B02F001020492049A91
:102FE00005941A6B42F002021A631A6B02F0020295
:102FF0000592059A06941A6B42F008021A631B6B3D
:1030000003F008030693069BDFF8E0A022464AF28D
:10301000AA015046FFF7DCFADFF8D490224642F2CC
:103020003E014846FFF7D4FADFF8C880224640F256
:1030300004414046FFF7CCFA2A4F224644F62001CD
:103040003846FFF7C5FA284E224640F20541304681
:10305000FFF7BEFA4AF2AA030793012508950995DE
:103060000A9407A95046FFF7CBF942F20E030793E3
:10307000089509950A9407A94846FFF7C1F940F257
:1030800004430793089509950A9407A94046FFF75A
:10309000B7F944F620030793089509950A9407A900
:1030A0003846FFF7ADF940F20543079308950995B7
:1030B0000A9407A93046FFF7A3F9224605210A2002
:1030C000FFF7CAFC0A20FFF7FFFC22460521172064
:1030D000FFF7C2FC1720FFF7F7FC0CB0BDE8F08744
:1030E0000038024000040240000C02400010024080
:1030F000000802400000024008B50A480A4B03607D
:1031000046F2A81343600023836044F62062C26045
:1031100003618361FEF72CF900B908BD01F098FB4B
:10312000FBE700BF280700200044014000B58DB038
:103130002422002103A801F03FFF00230193029302
:103140001248134A0260436083604FF6FF72C26008
:10315000036143618361032303930123059309936F
:1031600003A9FEF739F950B900230193029301A98D
:103170000648FEF77BFA28B90DB05DF804FB01F0B4
:1031800067FBF1E701F064FBF6E700BFE80600200B
:103190000000014000B58DB02422002103A801F0F9
:1031A0000BFF00230193029312484FF0804202600C
:1031B000436083604FF6FF72C26003618361032343
:1031C000039301230593099303A9FEF705F950B969
:1031D00000230193029301A90648FEF747FA28B994
:1031E0000DB05DF804FB01F033FBF1E701F030FBBB
:1031F000F6E700BF6807002000B58DB0242200214B
:1032000003A801F0D9FE0023019302931148124A4A
:103210000260436083604FF6FF72C26003618361A6
:103220000323039301230593099303A9FEF7D4F81D
:1032300050B900230193029301A90648FEF716FA3C
:1032400028B90DB05DF804FB01F002FBF1E701F0D5
:10325000FFFAF6E7A80700200004004000B58DB093
:103260002422002103A801F0A7FE0023019302936A
:103270001148124A0260436083604FF6FF72C260D9
:10328000036183610323039301230593099303A936
:10329000FEF7A2F850B900230193029301A9064852
:1032A000FEF7E4F928B90DB05DF804FB01F0D0FA9F
:1032B000F1E701F0CDFAF6E7E8070020000800404A
:1032C00070B590B000230B930C930D930E930F9356
:1032D0000368664A93420BD0B3F1804F40D0644AF2
:1032E00093426AD0634A934200F09D8010B070BD53
:1032F00000250195604B5A6C42F001025A645A6CE9
:1033000002F001020192019A02951A6B42F010023A
:103310001A631A6B02F010020292029A03951A6B5A
:1033200042F001021A631B6B03F001030393039B3A
:103330004FF400630B9302260C9601240D940F9416
:103340000BA94E48FFF75CF84FF480730B930C9673
:103350000D940E950F940BA94948FFF751F8C5E756
:103360000021049103F50E331A6C42F001021A6435
:103370001A6C02F001020492049A05911A6B42F051
:1033800001021A631B6B03F001030593059B0224E2
:103390000B940C9401250F95394E0BA93046FFF77D
:1033A0002FF84FF400430B930C940D950E940F954A
:1033B0000BA93046FFF724F898E7002506952E4B19
:1033C0001A6C42F002021A641A6C02F002020692AF
:1033D000069A07951A6B42F001021A631A6B02F003
:1033E00001020792079A08951A6B42F002021A63CB
:1033F0001B6B03F002030893089B80230B930224AA
:103400000C9401260D960F940BA91D48FEF7F8FFAA
:1034100010230B930C940D960E950F940BA919483D
:10342000FEF7EEFF62E700210991134B1A6C42F0A0
:1034300004021A641A6C02F004020992099A0A91B1
:103440001A6B42F002021A631B6B03F002030A9329
:103450000A9BC0230B9302230C9301220D920F931E
:103460000BA90848FEF7CCFF40E700BF0000014071
:1034700000040040000800400038024000100240F4
:10348000000002400004024082B00268114B9A42E0
:1034900005D00268104B9A420ED002B0704700234C
:1034A00000930E4B5A6C42F002025A645B6C03F0BC
:1034B00002030093009BECE700230193074B5A6C37
:1034C00042F480325A645B6C03F480330193019BB5
:1034D000E3E700BF00040140004001400038024023
:1034E00000B589B0002303930493059306930793D3
:1034F00003681D4A934205D01C4A93421AD009B072
:103500005DF804FB00230193194B1A6B42F004028F
:103510001A631B6B03F004030193019B4FF4707358
:103520000393022304930323079303A91148FEF78F
:1035300067FFE4E7002302930D4B1A6B42F0010290
:103540001A631B6B03F001030293029B0423039392
:10355000022304930122059206930323079303A9F0
:103560000548FEF74DFFCAE7000401400040014056
:1035700000380240000802400000024030B593B01D
:1035800000241094119409940A940B940C940D94B3
:103590000E940F9420252A46214601A801F00CFD27
:1035A0003048314B03604460856042F60313C360CA
:1035B000046144618461FDF7F5FE00283CD10023DD
:1035C0001093119310A92748FEF750F8002836D120
:1035D0006023099300220A920B920C920D920E9294
:1035E0000F9209A91F48FDF781FF58BB042209A9C2
:1035F0001C48FDF77BFF40BB082209A91948FDF7CD
:1036000075FF28BB0C2209A91648FDF76FFF10BBF8
:103610000023019302930393049305934FF4005204
:103620000692089301A90F48FEF766F8B0B90D4855
:10363000FFF756FF13B030BD01F00AF9BFE701F004
:1036400007F9C5E701F004F9D0E701F001F9D3E784
:1036500001F0FEF8D6E701F0FBF8D9E701F0F8F841
:10366000E5E700BF280800200004014000B589B04C
:103670000023019302930393049305930693079306
:103680001148124A0260436083604FF6FF72C260C5
:1036900003618361FDF786FE80B9602301930022F8
:1036A00002920392059201A90748FDF71FFF40B956
:1036B0000548FFF715FF09B05DF804FB01F0C8F8F5
:1036C000EBE701F0C5F8F3E768080020004001408F
:1036D00002680E4B9A4200D0704700B583B00022BA
:1036E000019203F57443596C41F4003159645B6CE9
:1036F00003F400330193019B05211920FFF7ACF976
:103700001920FFF7E1F903B05DF804FB0044014024
:1037100000B583B000210191094B1A6B42F40012ED
:103720001A631B6B03F400130193019B0A460D20DF
:10373000FFF792F90D20FFF7C7F903B05DF804FB1E
:103740000038024008B50A480A4B03604FF4E133E1
:10375000436000238360C36003610C224261836184
:10376000C361FEF729F900B908BD01F071F8FBE764
:1037700008090020004C004030B589B000230393B5
:1037800004930593069307930268294B9A4201D04C
:1037900009B030BD04460025019503F5F6331A6CD7
:1037A00042F400221A641A6C02F400220192019A77
:1037B00002951A6B42F004021A631B6B03F00403B8
:1037C0000293029B4FF4406303930223049301236B
:1037D0000593032306930823079303A91548FEF7CF
:1037E0000FFE154820638463144B03604FF00063A1
:1037F00043608560C5604FF4806303614561856106
:103800004FF48073C36105624562FEF777FF58B9D4
:10381000094B63639C63002211463420FFF71CF9B7
:103820003420FFF751F9B3E701F012F8F0E700BFD9
:10383000004C004000080240A80800204060024000
:10384000024600200AE000BF4FF060431B68002BD7
:10385000F9D04FF0604383F800C00130884210DA9D
:1038600012F800C04FF06043D3F8803E13F0010F10
:10387000F3D04FF06043D3F8003E13F0010FE3D1D3
:10388000EBE7704708B508461146FFF7D9FF08BDBA
:10389000DFF834D0002103E00C4B5B584350043177
:1038A0000B480C4B42189A42F6D30B4A02E0002315
:1038B00042F8043B094B9A42F9D3FFF751FB01F060
:1038C00049FB00F081FF704700000220547F000890
:1038D00000000020D4050020D40500201412002090
:1038E000FEE7000000000000F8B5044605682B68FC
:1038F0001B68586A00B2FCF715FE0BA3D3E900233E
:10390000FCF77AFE06460F46A888FCF70BFE024637
:103910000B4630463946FCF799FFFDF765F9E06044
:103920000023A360F8BD00BF6F1283C0CA211940F5
:10393000F8B5044605682B681B68586A00B2FCF7A6
:10394000F1FD14A3D3E90023FCF756FE0022104B2F
:10395000FCF752FE06460F46AB8803EB8303580084
:10396000FCF7E0FD02460B4630463946FCF76EFF99
:10397000FDF73AF960602B681B685B6A228A134482
:1039800023822B681B6800225A6294ED010AF8BD5D
:1039900000408F406F1283C0CA2119400000000010
:1039A000F8B52DED028B044605682B681B68586A34
:1039B000B4F9103003FA80F0FCF7B4FD20A3D3E98A
:1039C0000023FCF719FE06460F46A888FCF7AAFD5F
:1039D00002460B4630463946FCF738FFFDF704F93E
:1039E00008EE100A94ED030A38EE400AB5EEC00A5C
:1039F000F1EE10FA14DBDFED108ADFED100A30EE85
:103A0000280A01F0D9F930EE680AD4ED027A30EED6
:103A1000270A84ED020A84ED038ABDEC028BF8BD0F
:103A2000DFED058ADFED050A30EE680A01F0C4F922
:103A300030EE280AE9E700BF560E4940560EC9404D
:103A40006F1283C0CA2119400023038202681268E2
:103A50001268536200238360C3607047034B93FB7B
:103A6000F0F080B2013880B2704700BF00BD0105A0
:103A700070B505460C4616464FF4FA50FFF7EEFFB8
:103A800006FB00F20D4B83FB02131344D217C2EB6B
:103A9000E3321CB92B6892B25A6370BD042C05D076
:103AA000082C07D02B6892B21A64F6E72B6892B202
:103AB0009A63F2E72B6892B2DA63EEE70180008046
:103AC00008B50A46C1698069FFF7D2FF08BD00004A
:103AD000F8B5044610EE105A0068FCF735FD0246B2
:103AE0000B460BA1D1E90001FCF7B0FE06460F46DC
:103AF0002846FCF729FD02460B4630463946FCF7BE
:103B00007BFDFDF751F881B22046FFF7D9FFF8BDE4
:103B100000000000E0FFEF4008B511B1012906D018
:103B200008BD012281898068FEF752FDF8E7002276
:103B300081898068FEF74CFDF2E7000008B50C4B68
:103B400083ED000A0B4BC3ED000A21B1012907D018
:103B5000022909D008BD00F5B67000F04FF8F9E76A
:103B6000043000F03BF9F5E72C3000F0B7FAF1E74C
:103B70004C0900204809002010B52DED028B0446A9
:103B8000006890ED008AB4EEC08AF1EE10FA08D415
:103B9000B1EE488AB4EEC08AF1EE10FA01DCB0EE64
:103BA000408AD0ED017AB1EE677AB4EEC87AF1EED0
:103BB00010FA0FDCF4EEC87AF1EE10FA13D50021FA
:103BC000FFF7AAFFB0EEC80A2068FFF781FFBDEC3F
:103BD000028B10BD0121FFF79FFFB0EEC80A2068DD
:103BE000FFF776FFF3E70221FFF796FF9FED020A4A
:103BF0002068FFF76DFFEAE70000000090F82D3025
:103C000013B99FED3A0A704710B52DED028B0446AB
:103C1000B0EE408AF0EE608AFEF78AFF636AC31A4C
:103C2000A26A9A4246D8C4ED048A38EE680A94ED36
:103C3000017A27EE007AD4ED057A37EE277A84ED03
:103C4000057AD4ED036A78EEE66A94F82C303BB935
:103C5000D4ED007A67EEA67A37EE677A84ED057ABE
:103C6000D4ED057A94ED087AF4EEC77AF1EE10FA05
:103C700025DD84ED057A63B394ED008A28EE000A11
:103C800084ED060AD4ED057A94ED026A66EE266AA2
:103C900077EEE67AD4ED066A77EEA67AC4ED067A78
:103CA000B4EEE77AF1EE10FA16D584ED067AC4ED9B
:103CB000038A606294ED060ABDEC028B10BD94EDA0
:103CC000076AF4EEC67AF1EE10FAD4D584ED056AEF
:103CD000D1E70023A361D5E794ED077AF4EEC77A24
:103CE000F1EE10FAE3D584ED067AE0E7000000007B
:103CF000B5EEC00AF1EE10FA24D4F5EEC00AF1EEEA
:103D000010FA1FD4B5EEC01AF1EE10FA1AD4012938
:103D100014BF0021012180F82C10D0ED0A7AF8EEB2
:103D2000677ADFED106A87EEA67A80ED000A60EE12
:103D3000870AC0ED010AC1EE077AC0ED027A036B73
:103D4000012B00D070479FED087A37EE400A80EDD6
:103D5000000A77EE600AC0ED010A77EE677AC0EDDF
:103D6000027AEFE700007A4400000000B4EEE00AB7
:103D7000F1EE10FA03DC80ED070AC0ED080A704787
:103D80000369C360D0ED067AC0ED057A90ED087A3C
:103D9000F4EEC77AF1EE10FA02DD80ED057A704795
:103DA00090ED077AF4EEC77AF1EE10FA01D580EDC6
:103DB000057A704738B50446012914BF002501254E
:103DC00090F82D3083F00103AB4202D084F82D50DF
:103DD00038BDFFF7D5FFF9E70163704710B52DED4A
:103DE000028B0446B0EE408AF0EE608AFEF7A0FE39
:103DF000236AC31A626A9A4233D838EE680A94ED8D
:103E0000056A94ED067A76EE077AD4ED076A77EEC6
:103E1000A67A67EE807A37EE467A36EEA66A37EEF5
:103E2000467A94ED016A27EE067A77EE877A94ED6A
:103E3000027A66EE876A77EEA67A94ED007A77EEDC
:103E4000877AC4ED007A94ED047AF4EEC77AF1EE45
:103E500010FA0BDD84ED007A84ED026A84ED010A2C
:103E6000206294ED000ABDEC028B10BD94ED037A44
:103E7000F4EEC77AF1EE10FAEED584ED007AEBE7B6
:103E8000B5EEC00AF1EE10FA1BD4F5EEC00AF1EE61
:103E900010FA16D4B5EEC01AF1EE10FA11D4D0ED26
:103EA000097AF8EE677ADFED076A87EEA67A80ED89
:103EB000050A60EE870AC0ED060AC1EE077AC0ED7A
:103EC000077A704700007A44B4EEE00AF1EE10FA87
:103ED00003DC80ED030AC0ED040A7047B4EEE00A8B
:103EE000F1EE10FA0BDDB4EEC10AF1EE10FA06D8CD
:103EF00070EE607A31EE601A87EE810A7047B4EE98
:103F0000C10AF1EE10FA0BDDB4EEE10AF1EE10FA9F
:103F100009D871EEC07A71EEC11A87EEA10A704716
:103F20009FED020A70479FED010A704700000000F4
:103F300071EE607A67EE807A77EEA00A31EEC11AF0
:103F400021EE001A31EEC11A30EE811AB6EE000AE7
:103F500021EE000A7047002202604260C261826066
:103F6000C2600261426102624262826282637047A1
:103F700070EE207A77EE817AC0ED0B7A30EE600A2F
:103F800071EE010A30EE600A80ED0C0A80ED0D1A28
:103F900090ED027A67EE877A90ED047A20EE070AB8
:103FA00077EE807A90ED057A27EE011A37EE811AC6
:103FB00080ED061AD0ED077A37EE811A80ED071AE8
:103FC000704708B580ED002AC0ED011A80ED080A9F
:103FD000C0ED090A80ED0A1AFFF7CAFF08BD10B547
:103FE0009646002221E0C2EBC20363440E3300EB8D
:103FF0008303C3ED017A0CF1010CBCF1060F13DC55
:1040000002F1400300EB8303D3ED007A0CF1460389
:1040100000EB830393ED017AF4EEC77AF1EE10FA28
:10402000E1DDF0EE477ADEE70132062A02DC4FF0EE
:10403000000CE2E7002419E00132062A15DCC4EB8B
:10404000C40313440E3300EB8303D3ED017A90EDE8
:104050000E7AF4EEC77AF1EE10FAEDDDC0ED0E7ACD
:10406000C0F83841C0F83C21E6E70134062C01DCF9
:104070000022E2E7D0F83831C3EBC30301EB83033E
:10408000D0F83C2153F8223003EB43039A000EEBA7
:104090008303111D714408329644DEED001A91ED40
:1040A000001AD3ED000A90ED0E0AFFF741FF10BD94
:1040B00020EE010A80EE200A7047B4EEC10AF1EE4C
:1040C00010FA07DCB4EEE00AF1EE10FA04D5B0EE17
:1040D000600A7047B0EE410A704700002DE9F041D8
:1040E0002DED048B0446F0EE608A9FED569AB7EEF4
:1040F000001AF0EE490AFFF7DBFFB0EE408AB7EE98
:10410000001AF0EE490AB0EE680A2046FFF7D0FF29
:1041100038EE408A84ED028AD4ED048A78EE688A0B
:10412000C4ED038A002535E005EB4500421C811CE7
:10413000454B8F0003EB8101960003EB82024FEAAF
:10414000800803EB8003D1ED001A92ED001AD3ED45
:10415000000AB0EE480A2046FFF7C0FE05F1400312
:1041600004EB830383ED000A384B1F441E44434491
:10417000D7ED001A96ED001AD3ED000AB0EE680AEA
:104180002046FFF7ABFE05F1460304EB830383ED06
:10419000010A0135062DC7DD2D4A2E492046FFF7BD
:1041A0001EFFD4ED087A30EE270A84ED080AB5EE3A
:1041B000C00AF1EE10FA3BD4274A28492046FFF7FF
:1041C0000EFFD4ED097A30EE270A84ED090AB5EE28
:1041D000C00AF1EE10FA2ED4214A22492046FFF7F8
:1041E000FEFED4ED0A7A30EE270A84ED0A0AB5EE17
:1041F000C00AF1EE10FA21D494ED0A1AD4ED090A9E
:1042000094ED080A2046FFF7B3FE23696361A368B3
:10421000236194ED001AD4ED010A94ED070A2046BB
:10422000FFF74BFF84ED070ABDEC048BBDE8F0817E
:1042300000232362C0E700236362CDE70023A3626B
:10424000DAE700BF00004842600100200C010020B6
:10425000B80000203C030020640000207802002009
:1042600010000020B4010020034B01E0A3F5D0733F
:10427000024A9342FAD17047C0100020800D0020FE
:10428000034B01E0A3F5D073024A9342FAD1704781
:10429000800D0020400A0020034B00E0143B034A3D
:1042A0009342FBD1704700BF400A0020180A00204B
:1042B000034B00E0143B034A9342FBD1704700BF1D
:1042C000180A0020F0090020F8B52DED048B0546F2
:1042D000041D9FED278A80ED018A80ED028A80ED22
:1042E000038A9FED249ADFED248AF0EE490AB0EEAE
:1042F000680A2046FFF7E8FDB0EE481AF0EE480ADB
:10430000B0EE480A2046FFF7BBFD00266E620A2782
:10431000AF6205F12C00FFF71EFE05F5B67485EDC2
:10432000618A85ED5F8AC5F8947185F89961F0EE30
:10433000490AB0EE680A2046FFF718FD0121204621
:10434000FFF738FD31462046FFF746FD0121B0EE6C
:10435000481AF0EE480AB0EE480A2046FFF7C8FCBB
:10436000C5F890612E602846BDEC048BF8BD00BFF7
:104370000000000000007F4300007FC3012800D040
:10438000704770B504464FF6FF73994200D070BD78
:104390000546244E002D06DB3046FFF795FF06F557
:1043A000D076013DF6E7204A2049002000F0FFFCCE
:1043B00025461F4E002D06DB3046FFF785FF06F52C
:1043C000D076013DF6E7184A1A49002000F0EFFCCC
:1043D0002146194B002908DB00225A600020188270
:1043E0009A60DA6014330139F4E70F4A1349002068
:1043F00000F0DDFC124B002C08DB00225A6000218B
:1044000019829A60DA601433013CF4E7064A0D49D8
:10441000002000F0CCFC0C4B00221A601A719A604C
:10442000B5E700BF800D00200000002069420008B1
:10443000400A002081420008180A00209942000822
:10444000F0090020B1420008C810002010B5274C28
:104450002748A061274BA3604FF48063A38100230A
:10446000E361254B23604FF07E536360A0632349D3
:10447000A1620122A2850422E263DFF890C0C4F8A1
:1044800020C06362A065A164A4F84C200822E26504
:104490001B4A22646364A067A1F50061A166202124
:1044A000A4F86C100C21E16722666366FCF702FE3B
:1044B000E169A069FDF798F8E16BA06BFDF794F84E
:1044C000E16DA06DFDF790F8E16FA06FFDF78CF83E
:1044D0000C4B1C6004F12002C3F8A0210A4B04F12C
:1044E00040021A606034C3F8A04110BD500900209A
:1044F00028080020000002400000B041000C0240EB
:104500000000A041400A0020800D00200000A040D3
:1045100070B5224C0023A37140F6AC53A380204811
:1045200020600123A3734FF42F73A3811D4BA3605D
:104530000223A3754FF4C873A3821B4A226103228E
:10454000A277A383194BA3613C21FDF76DF83C21B1
:10455000A068FDF769F83C212069FDF765F83C216A
:10456000A069FDF761F8124E346004F1080373612D
:10457000104D04F110032B6018346C613046FFF7C6
:10458000B3F906F11400FFF7AFF92846FFF7ACF9CD
:1045900005F11400FFF7A8F970BD00BFD009002095
:1045A000E806002068070020A8070020E807002090
:1045B000F0090020180A0020F8B52DED028B384FC5
:1045C00000253D70374E06F5B674F1EE0C0AB9EED3
:1045D0000C0A2046FFF7CAFB01212046FFF7EAFB41
:1045E00029462046FFF7F8FB9FED2F8A0121B0EE08
:1045F000481AF0EE480AB0EE000A2046FFF778FBB2
:1046000002237B70B1EE042AF9EE041AB0EE481AC8
:10461000DFED260AB7EE000A06F5E670FFF7D1FCDB
:10462000234F3D70234C04F5B676F3EE060ABBEE3D
:10463000060A3046FFF79AFB01213046FFF7BAFB26
:1046400029463046FFF7C8FBDFED1B8A0121B0EE9B
:10465000481AF0EE480AB0EE680A3046FFF748FB09
:104660007D7004F54374F3EE060ABBEE060A20469D
:10467000FFF77CFB01212046FFF79CFB29462046E3
:10468000FFF7AAFB0121B0EE481AF0EE480AB0EE9F
:10469000680A2046FFF72CFBBDEC028BF8BD00BF7B
:1046A000C0100020400A002000000000CDCCCC3D0E
:1046B000C4100020800D0020AE47813F08B500F0F7
:1046C0000DFBFFF7C3FEFFF723FFFFF775FF08BDE4
:1046D00008B54FF6FF710120FFF750FE08BD00003E
:1046E00008B500F0FBFA00F005FB034800F02EFAD5
:1046F000024800F0FBF9F4E7F0110020E01100207F
:104700008C4600210DE05200D2B2013BDBB233B146
:1047100012F0800FF7D08CEA4202D2B2F5E7425491
:104720000131FF2902DCCAB20823F0E7704700001C
:1047300030B595B03022002108A800F03DFC0024DF
:104740000394049405940694079401941C4B1A6CEA
:1047500042F080521A641B6C03F080530193019B5A
:104760000294184B1A6842F480421A601B6803F4E2
:1047700080430293029B012308934FF480330993F3
:1047800002250E954FF480030F93082310934FF4E6
:10479000A873119312950723139308A8FDF7DCFA69
:1047A0000F230393049505944FF4A05306934FF4FD
:1047B00080530793052103A8FDF72EFD15B030BDEA
:1047C000003802400070004008B5FEF78BF9FFF793
:1047D000AFFFFEF7D3FBFEF79BFFFEF7A7FCFEF74C
:1047E000D9FCFEF709FDFEF739FDFEF7C7FEFEF71F
:1047F0003DFFFEF781FCFEF7A5FFFFF75FFFFFF728
:104800006FFFFEE710B5044602680C4B9A4204D0D5
:1048100022680B4B9A4203D010BDFEF77DF9F7E7F3
:1048200001224FF400510748FDF7D2FE064801F07F
:10483000A3F80648FCF761FCEEE700BF000C00405F
:104840000044014000100240087B000828070020B7
:104850007047000000000000F8B52DED028B044603
:10486000837853BB2378012B30D0002B7BD0637827
:10487000012B00F0A180002B40F0BB80B8EE000AB5
:104880009148FFF779F99148FFF78AF810EE100A7E
:10489000FBF75AFE82A3D3E90023FCF71FF9002897
:1048A00000F0AF808948FFF7CFF89FED890A86486E
:1048B000FFF762F902236370A3E001224FF4005175
:1048C0008448FDF785FE0023A370CBE7824B1B785D
:1048D000002B34D1B9EE040A8048FFF74DF9804827
:1048E000FFF75EF810EE100AFBF72EFE6EA3D3E979
:1048F0000023FCF707F910B1774B1B782BB37848EE
:10490000FFF74EF810EE100AFBF71EFE68A3D3E97E
:104910000023FCF7F7F8002873D06F4B1B78002BAF
:104920006FD06F48FFF790F89FED690A6B48FFF76B
:1049300023F902232370684B00221A7061E0B9EE5C
:10494000040A6648FFF718F9C9E76548FFF77CF8DD
:104950009FED5F0A6148FFF70FF9022323705E4B5A
:1049600001221A70CBE75E4D2846FEF7E1FFF0EE1C
:10497000400A5A4E5B4B1978B1EE040A3046FFF7F5
:10498000DDF83046FFF7F8F82846FFF709F810EE93
:10499000100AFBF7D9FD48A3D3E90023FCF7A8F8D8
:1049A00078B32846FFF750F89FED490A3046FFF7E5
:1049B000E3F80223237024E0B0EE000A4248FFF738
:1049C000DBF84248FEF7ECFF10EE100AFBF7BCFDE7
:1049D0003BA3D3E90023FCF79FF890B13B48FFF7D6
:1049E00033F89FED3B0A3848FFF7C6F8022363709F
:1049F00007E03648FFF728F89FED350A3248FFF701
:104A0000BBF8E37833B923796BB963793BBBBDEC71
:104A1000028BF8BD00224FF400512E48FDF7D8FD5F
:104A20000023E370EFE72E4F3846FFF70DF89FEDB8
:104A3000288A2A4EB0EE480A3046FFF79DF8022534
:104A4000257007F11400FEF7FFFFB0EE480A06F5E7
:104A5000D070FFF791F8657000232371D5E7224DE0
:104A6000012208212846FDF7B3FD4FF47A70FEF7C6
:104A700065F8012220212846FDF7AAFD00224FF407
:104A800000511448FDF7A4FD4FF47A70FEF756F874
:104A9000002208212846FDF79BFD00236371B6E73D
:104AA0001F85EB51B81EF9BF666666666666F63FFF
:104AB000333333333333D33F333333333333FBBFC6
:104AC0001F85EB51B81EF93FE00B0020040A0020BF
:104AD0000000000000080240D4100020400A00201E
:104AE000F0090020C01000200010024010B504465C
:104AF000FEF71EF8A368C01A0A2800D810BD204689
:104B0000FFF7AAFEFEF714F8A060F7E710B52DED49
:104B1000028BB0EE408A002410E06300C3F1010371
:104B200007EE903AB8EEE70A20EE080A4FF4D0708C
:104B3000054B00FB0430FFF71FF80134012CECDDBE
:104B4000BDEC028B10BD00BF800D002038B50446BF
:104B50004378002B48D0FDF7EBFFA368C01A0A2862
:104B600013D8237813B1234B1B78BBB1FDF7E0FFBB
:104B7000E368C01AB0F5FA6F27D91E4B1B7823B330
:104B800000231C4A1370237032E0B3EE040A20465F
:104B9000FFF7BCFFFDF7CCFFA060E2E7164D002257
:104BA00020212846FDF714FD3220FDF7C7FF012222
:104BB00002212846FDF70CFDFDF7BAFFE060002357
:104BC00023700C4B01221A7012E0FDF7B1FFE3686D
:104BD000C01A64280CD9074B1B784BB10022022164
:104BE0000548FDF7F5FC03E09FED040AFFF78EFF93
:104BF00038BD00BFD51000200010024000000000AA
:104C000070470000012800D0704738B54FF6FF7399
:104C1000994200D038BD104D00242C706C70AC70DF
:104C2000FDF786FF6860FDF783FFA860EC600B4D21
:104C3000AC702C716C71FDF77BFFA86002232B70A8
:104C40006B70074C07212046FFF75AFD054A0649BD
:104C5000204600F0ACF8DDE7F0110020E011002064
:104C6000D810002000000020014C00080B780370D1
:104C70004B7843707047000008B503685B68124BBF
:104C80001B7843B9114B1B78A52B00D008BD0E4BE8
:104C900001221A70FAE70D4B1A78A52AF6D00C4BB0
:104CA0001B88012B05D80B49CA540133084A1380CD
:104CB000ECE70023044A1370054A138005490648AF
:104CC000FFF7D4FFE2E700BFDC110020DD11002078
:104CD000DA110020D8110020EC11002008B50122C3
:104CE00002490348FCF798FE08BD00BFDD11002013
:104CF00008090020274B1B78012B16D0022B18D057
:104D0000042B1AD0082B1CD0102B1ED0202B23D004
:104D1000402B27D0802B2DD01E4B5B78802B2DD0A5
:104D2000402B2FD0202B31D070471B4A01215170CE
:104D3000E6E7194A00215170E2E7184B00221A7089
:104D40007047164B01221A707047144B01225A709B
:104D5000104B00221A7070470023104A53700D4AFE
:104D6000137070470C4B01221A709A70094B002285
:104D70001A707047094B0122DA707047074B012205
:104D80005A717047054B01229A707047034B0122FC
:104D90001A71C9E7EC110020F0110020E011002089
:104DA00008B54FF6FF710120FFF72CFF08BD0B4639
:104DB0000146184600F0BAB808B52DED028BF0EEAA
:104DC000408AB0EE608A00F021F80E4B93F9003073
:104DD00001330BD0F4EE488AF1EE10FA06D6DFED7F
:104DE0000A8AB4EE688AF1EE10FA02D0BDEC028BAA
:104DF00008BD00F0A9F888EEA80ABDEC028B2123BB
:104E0000036008BD000400200000000030B583B03E
:104E1000CDED010A019D35F0004041D010EE10EAC1
:104E20002EF00043B3F1FF4F3ADAB0F1FF4F37DC19
:104E300083423BDB0EF000443AD01EF0FF4F56D1C8
:104E4000190200296FF07D0204DD4900002902F1FA
:104E5000FF32FADC15F0FF4F57D101026FF07D0CE5
:104E600003D449000CF1FF3CFBD512F17E0F47DB68
:104E7000CEF3160343F400031CF17E0F3ADBC5F3B7
:104E8000160040F40000B2EB0C0204D117E00FD082
:104E90004B00013A13D0191A0029F8DA5B00F8E741
:104EA000DDED017A60EE277A87EEA70A03B030BD08
:104EB0001D4B03EB547393ED000A03B030BD181A79
:104EC00058BF03461BB9F3E75B000CF1FF3CB3F599
:104ED000000FF9DB1CF17E0F1CDBA3F500030CF1C6
:104EE0007F0C234343EACC5300EE103ADEE7DA1599
:104EF0007F3AAFE76FF07D01A1EB0C018840C2E77C
:104F00006FF07D01891A8B40B6E74FEAE05CACF1A7
:104F10007F0CAAE76FF07D02A2EB0C0C43FA0CF3B6
:104F2000234300EE103AC1E7107B000810B5054C92
:104F300013462CB10A4601460220AFF3008010BD93
:104F40002046FCE700000000014B1868704700BFD6
:104F50000404002070B50D4D0D4C641BA4100026F8
:104F6000A64209D10B4D0C4C02F0B2FD641BA410FB
:104F70000026A64205D170BD55F8043B984701367E
:104F8000EEE755F8043B98470136F2E7447F000806
:104F9000447F0008447F0008507F00080A44914283
:104FA00000F1FF3300D1704710B511F8014B03F841
:104FB000014F9142F9D110BD02440346934200D102
:104FC000704703F8011BF9E72DE9FF4755EC104B3B
:104FD000002D0E4619462B46BBBF05F100431D466A
:104FE00000232D230B700D9BDDF830A0914623F09C
:104FF0002008BCBF22461446B8F1460F05D0B8F1D0
:10500000450F00D10136022100E0032103AB0193DB
:1050100002AB009345EC104B5346324600F000FEC5
:10502000B8F1470F074602D119F0010F22D0B8F1AD
:10503000460F07EB060910D13B78302B0AD100222E
:10504000002320462946FBF73FFD18B9C6F10106AB
:10505000CAF80060DAF800309944002200232046A4
:105060002946FBF731FD08B1CDF80C903022039BA7
:105070004B4507D3039B0E9ADB1B3846136004B0E5
:10508000BDE8F087591C03911A70F0E7F7B50346A5
:105090000029B8BF494203F8022BB4BF2D222B22AE
:1050A000092942702ADD0DF10704A4460A27A64605
:1050B0000A4691FBF7F607FB16153035632A04F113
:1050C000FF340EF8015C3146F1DC3031AEF10205FF
:1050D00004F8011C441C294661450AD30DF109025C
:1050E000A2EB0E02654588BF00221344181A03B0D4
:1050F000F0BD11F8012B04F8012FEDE7302330311A
:105100008370C170031DF1E72DE9F04F2DED028B87
:105110008DB00C46DDF8608016461F46054601F04E
:1051200025FDD0F800A05046FBF752F800230A9363
:1051300023680593D8F8003094F818B0073323F0AB
:10514000070303F10802C8F80020D3E90023C4E9EB
:105150001223D4E9128929F000430793CDF818806F
:1051600008EE100A9F4BDDE906014FF0FF32FBF716
:10517000DDFC88BBDDE906019A4B4FF0FF32FBF7FF
:10518000B7FC48BB0022002340464946FBF7A6FC7B
:1051900010B12D2384F84330934B9448BBF1470F53
:1051A00094BF9846804603232361059B23F00402A5
:1051B00022604FF00009009733460BAA214628468B
:1051C00000F0D8F9013040F090804FF0FF300DB082
:1051D000BDEC028BBDE8F08F42464B464046494647
:1051E000FBF7A4FC40B14B46002BBCBF2D2384F839
:1051F00043307F487F4BD1E763680BF0DF020692B4
:105200005A1C3FD106236360059B616843F48062AA
:10521000002303930AABCDE901B309AB49EC108B32
:10522000009322600DF123032846FFF7CDFE069B75
:105230000999472B804608D1C81C02DB6368994254
:1052400041DDABF1020B5FFA8BFBBBF1650F20D8A0
:1052500001395A4604F150000991FFF717FF0A9AE5
:105260001318012A8146236102DC2268D20701D586
:10527000013323619DF82330002B9CD02D2384F82B
:10528000433098E7069A472ABED1002BBCD10123B0
:10529000B9E7BBF1660F18D1002963680BDD216106
:1052A00013B92268D00702D501330B442361A165ED
:1052B0004FF00009DEE713B92268D20701D50233A7
:1052C000F4E70123F2E74FF0670B0A9B994205DBF5
:1052D00023682161D807EAD54B1CE7E70029D4BF32
:1052E000C1F1020201221344E0E723685A0507D402
:1052F0002369424631462846B84701302CD164E73D
:10530000BBF1650F40F2E080D4E9120100220023D6
:10531000FBF7DAFB002834D0374A01233146284610
:10532000B84701303FF451AFDDE909239A4202DB6F
:105330002368D80710D518EE103A52463146284651
:10534000B84701303FF441AF4FF0000804F11A09AB
:105350000A9B013B434509DC23689B0700F105815B
:10536000E0680B9B9842B8BF184630E701234A46D5
:1053700031462846B84701303FF427AF08F101080D
:10538000E6E7099B002B39DC1B4A012331462846FE
:10539000B84701303FF419AFDDE90923134302D1C7
:1053A0002368D907D8D518EE103A52463146284618
:1053B000B84701303FF409AF4FF0000904F11A0A71
:1053C000099B5B424B4501DC0A9B92E70123524655
:1053D00031462846B84701303FF4F7AE09F10109DC
:1053E000EEE700BFFFFFEF7F1C7B0008207B00087B
:1053F000287B0008247B00082C7B00080A9AA36DF8
:105400009A42A8BF1A46002A914637DC4FF0000B9B
:1054100029EAE97904F11A02A36D0593A3EB0903C4
:105420005B4533DCDDE909239A423BDB2368DA077D
:1054300038D40A9B059A09999A1AA3EB0109914558
:10544000A8BF9146B9F1000F35DC4FF0000829EAFA
:10545000E97904F11A0ADDE909239B1AA3EB090390
:1054600043457FF779AF0123524631462846B84776
:1054700001303FF4AAAE08F10108ECE713463146CB
:1054800042462846B8470130C0D19EE60123314646
:1054900028460592B84701303FF497AE059A0BF1C4
:1054A000010BB9E718EE103A524631462846B84784
:1054B0000130BED189E6059A4B4642443146284622
:1054C000B8470130C1D180E60A9A012A01DCDB0726
:1054D00038D50123424631462846B84701303FF4CB
:1054E00074AE18EE103A524631462846B84701309D
:1054F0003FF46BAED4E9120100220023FBF7E4FA7B
:10550000D8B90A9B08F10102013B31462846B84749
:1055100001300ED159E60123524631462846B8479C
:1055200001303FF452AE08F101080A9B013B4345AC
:10553000F1DC4B4604F15002DCE64FF0000804F1C8
:105540001A0AF2E701234246DFE701234A463146C1
:105550002846B84701303FF438AE08F10108E36847
:105560000B995B1A4345F0DCFAE64FF0000804F1B2
:105570001909F4E72DE9F047164699468A680B6940
:10558000DDF820809342B8BF1346336091F8432082
:1055900007460C460AB1013333602368990642BFBF
:1055A000336802333360256815F0060506D104F12F
:1055B000190AE36832689B1AAB4226DC94F8432050
:1055C000131E226818BF012392062BD404F1430254
:1055D00049463846C04701301ED02368E568326826
:1055E00003F00603042B08BFAD1AA36822690CBFA1
:1055F00025EAE57500259342C4BF9B1AED180026E5
:105600001A34B5421AD1002008E001235246494617
:105610003846C047013003D14FF0FF30BDE8F08776
:105620000135C6E7E1185A1C302081F843002244B6
:1056300094F8451082F843100233C7E7012322464D
:1056400049463846C0470130E6D00136D9E7000068
:105650002DE9FF470F7E0C9D782F914680460C4622
:105660009A4601F1430207D8622F0AD8002F00F0B2
:10567000D880582F00F0A38004F1420584F84270CE
:105680003AE0A7F16303152BF6D801A151F823F0F6
:10569000E9560008FD5600087956000879560008BA
:1056A0007956000879560008FD560008795600081A
:1056B00079560008795600087956000809580008FC
:1056C0002D570008EB570008795600087956000856
:1056D0002B580008795600082D5700087956000805
:1056E00079560008F35700082B681A1D1B682A60BA
:1056F00004F1420584F842300123A3E020682968C0
:10570000060601F104030AD50E682B60002E03DAA9
:105710002D23764284F843305E480A2319E00E6850
:105720002B6010F0400F18BF36B2EFE72B682068EF
:10573000191D2960010601D51E6802E04606FBD549
:105740001E8854486F2F0CBF08230A23002184F8B9
:1057500043106568A560002DA2BF216821F00401F7
:1057600021600EB9002D4DD01546B6FBF3F103FBB9
:105770001167C75D05F8017D3746BB420E46F4D977
:10578000082B0BD12368DE0708D52369616899428D
:10579000DEBF302305F8013C05F1FF35521B2261C5
:1057A000CDF800A04B4603AA21464046FFF7E2FE93
:1057B00001304CD14FF0FF3004B0BDE8F0873548E0
:1057C00081F845702968236851F8046B29601D062B
:1057D00014D5DF0744BF43F0200323601EB92368BC
:1057E00023F0200323601023B0E7236843F0200355
:1057F00023607823284884F84530E3E7590648BFFA
:10580000B6B2E6E71546BBE72B6826686169181D46
:10581000286035061B6801D5196002E07006FBD5CB
:105820001980002323611546BAE72B681A1D2A60E8
:105830001D68626800212846FAF7D2FC08B1401BB7
:10584000606063682361002384F84330A8E723691C
:105850002A4649464046D0470130ABD023689B07D3
:1058600013D4E068039B9842B8BF1846A4E701230D
:10587000324649464046D04701309BD00135E36867
:1058800003995B1AAB42F2DCEBE7002504F1190641
:10589000F5E700BF2E7B00083F7B000870B50E4681
:1058A000054618B183690BB901F0C2F8AB69AC6861
:1058B00013B9284601F0BCF82C4B9C4220D16C68EF
:1058C000636EDB0705D4A389980502D4A06D01F0AF
:1058D00052F9A38919071DD52369DBB1013EA368DD
:1058E00016F8011F013BA36039BB002B38DA2246B2
:1058F0000A21284600F048F8013011D00A2511E0AD
:105900001B4B9C4201D1AC68DAE71A4B9C4208BFA2
:10591000EC68D5E72146284600F088F80028DDD05D
:105920004FF0FF35636EDA0705D4A3899B0502D4D7
:10593000A06D01F021F9284670BD002B04DAA269A0
:105940009A4206DC0A2904D023685A1C2260197086
:10595000C5E72246284600F017F80130BFD1DFE73F
:1059600023680A255A1C22601D70DBE7247C00088E
:10597000447C0008047C0008024B01461868FFF7CD
:105980008DBF00BF04040020F8B50E46144605463E
:1059900018B183690BB901F04BF8214B9C422BD114
:1059A0006C68A369A360A3891A072FD523696BB319
:1059B00023692068C01A6369F6B28342374604DC63
:1059C0002146284600F0A0FF30BBA368013BA3603E
:1059D00023685A1C22601E7063690130834204D020
:1059E000A389DB0706D50A2E04D12146284600F0FC
:1059F0008BFF88B93846F8BD0A4B9C4201D1AC6890
:105A0000CFE7094B9C4208BFEC68CAE7214628460D
:105A100000F00CF80028CBD04FF0FF37EAE700BFCA
:105A2000247C0008447C0008047C0008324B70B5DC
:105A30001D6806460C4625B1AB6913B9284600F02F
:105A4000F7FF2E4B9C420FD16C68A389B4F90C2050
:105A500019072CD4DD0611D40923336042F040032A
:105A6000A3814FF0FF303EE0254B9C4201D1AC6852
:105A7000EBE7244B9C4208BFEC68E6E7580712D5D9
:105A8000616B41B104F14403994202D0304601F008
:105A900075FC00236363A38923F02403A3810023FF
:105AA000636023692360A38943F00803A38123690A
:105AB0004BB9A38903F42073B3F5007F03D02146CB
:105AC000304601F07FF8A089B4F90C2010F00103F2
:105AD0000AD00023A36063695B42A361236943B9D1
