:020000040800F2
:1000000000000220D93A000851300008533000089F
:100010005530000857300008593000080000000033
:10002000000000000000000000000000912F000808
:100030005B30000800000000C12F000825300008D8
:10004000293B0008293B0008293B0008293B000800
:10005000293B0008293B0008293B0008293B0008F0
:10006000293B0008293B0008293B0008293B0008E0
:10007000293B0008293B0008293B00087D30000887
:100080006D300008293B0008293B0008293B000887
:10009000293B0008293B0008293B0008293B0008B0
:1000A000293B0008293B0008293B0008293B0008A0
:1000B000293B0008293B0008293B0008293B000890
:1000C000293B0008293B0008293B0008293B000880
:1000D000293B0008293B00088D300008293B000817
:1000E000293B0008293B0008293B0008293B000860
:1000F000293B0008293B0008293B0008293B000850
:10010000293B0008293B00085D300008293B000816
:100110009D300008293B0008293B0008293B0008C6
:10012000293B0008293B0008293B0008293B00081F
:10013000293B0008293B0008293B0008293B00080F
:10014000293B0008293B0008293B0008293B0008FF
:10015000293B0008293B0008293B0008293B0008EF
:10016000293B0008293B0008293B0008293B0008DF
:10017000293B0008293B0008293B0008000000003B
:08018000293B0008293B00089F
:1001900010B5054C237833B9044B13B10448AFF3C1
:1001A00000800123237010BDD00500200000000056
:1001B000948C000808B5034B1BB103490348AFF307
:1001C000008008BD00000000D4050020948C0008C9
:1001D000034613F8012B002AFBD1181A0138704787
:1001E00001F0FF01102A2BDB10F0070F08D010F8E8
:1001F000013B013A8B422DD010F0070F42B3F6D1EC
:10020000F0B441EA012141EA014122F007047FF004
:1002100000070023F0E80256083C85EA010586EA5B
:10022000010685FA47F5A3FA87F586FA47F6A5FA97
:1002300087F68EB9EED1F0BC01F0FF0102F00702A3
:1002400032B110F8013B013A83EA010313B1F8D14E
:100250000020704701387047002D06BF354603382F
:10026000073815F0010F07D1013015F4807F02BF68
:10027000013015F4C03F0130F0BC0138704700BFB9
:1002800081F0004102E000BF83F0004330B54FEA47
:1002900041044FEA430594EA050F08BF90EA020FB4
:1002A0001FBF54EA000C55EA020C7FEA645C7FEA47
:1002B000655C00F0E2804FEA5454D4EB5555B8BF6A
:1002C0006D420CDD2C4480EA020281EA030382EADB
:1002D000000083EA010180EA020281EA0303362D6D
:1002E00088BF30BD11F0004F4FEA01314FF4801C40
:1002F0004CEA113102D0404261EB410113F0004F52
:100300004FEA03334CEA133302D0524263EB430308
:1003100094EA050F00F0A780A4F10104D5F1200EA6
:100320000DDB02FA0EFC22FA05F2801841F1000101
:1003300003FA0EF2801843FA05F359410EE0A5F1D5
:1003400020050EF1200E012A03FA0EFC28BF4CF006
:10035000020C43FA05F3C01851EBE37101F00045BC
:1003600007D54FF0000EDCF1000C7EEB00006EEBC9
:100370000101B1F5801F1BD3B1F5001F0CD3490853
:100380005FEA30004FEA3C0C04F101044FEA4452AA
:1003900012F5800F80F09A80BCF1004F08BF5FEA31
:1003A000500C50F1000041EB045141EA050130BD11
:1003B0005FEA4C0C404141EB0101013C28BFB1F523
:1003C000801FE9D291F0000F04BF01460020B1FA6E
:1003D00081F308BF2033A3F10B03B3F120020CDA41
:1003E0000C3208DD02F1140CC2F10C0201FA0CF01F
:1003F00021FA02F10CE002F11402D8BFC2F1200C84
:1004000001FA02F120FA0CFCDCBF41EA0C01904039
:10041000E41AA2BF01EB0451294330BD6FEA040482
:100420001F3C1CDA0C340EDC04F11404C4F120026D
:1004300020FA04F001FA02F340EA030021FA04F37F
:1004400045EA030130BDC4F10C04C4F1200220FAD6
:1004500002F001FA04F340EA0300294630BD21FA14
:1004600004F0294630BD94F0000F83F4801306BFDA
:1004700081F480110134013D4EE77FEA645C18BFCE
:100480007FEA655C29D094EA050F08BF90EA020F65
:1004900005D054EA000C04BF1946104630BD91EA5D
:1004A000030F1EBF0021002030BD5FEA545C05D160
:1004B0004000494128BF41F0004130BD14F580049F
:1004C0003CBF01F5801130BD01F0004545F0FE4113
:1004D00041F470014FF0000030BD7FEA645C1ABF48
:1004E000194610467FEA655C1CBF0B46024650EA7F
:1004F000013406BF52EA033591EA030F41F40021AB
:1005000030BD00BF90F0000F04BF0021704730B530
:100510004FF4806404F132044FF000054FF0000105
:1005200050E700BF90F0000F04BF0021704730B5C6
:100530004FF4806404F1320410F0004548BF40429B
:100540004FF000013EE700BF42004FEAE2014FEAF0
:1005500031014FEA02701FBF12F07F4393F07F4FCB
:1005600081F06051704732F07F4208BF704793F0CE
:100570007F4F04BF41F40021704730B54FF46074E1
:1005800001F0004521F000411CE700BF50EA0102E4
:1005900008BF704730B54FF000050AE050EA01028D
:1005A00008BF704730B511F0004502D5404261EBFD
:1005B00041014FF4806404F132045FEA915C3FF43E
:1005C000D8AE4FF003025FEADC0C18BF03325FEADB
:1005D000DC0C18BF033202EBDC02C2F1200300FA8C
:1005E00003FC20FA02F001FA03FE40EA0E0021FAB1
:1005F00002F11444BDE600BF70B54FF0FF0C4CF49F
:10060000E06C1CEA11541DBF1CEA135594EA0C0F50
:1006100095EA0C0F00F0DEF82C4481EA030621EA8B
:100620004C5123EA4C5350EA013518BF52EA0335C6
:1006300041F4801143F4801338D0A0FB02CE4FF078
:100640000005E1FB02E506F00042E0FB03E54FF0A8
:100650000006E1FB03569CF0000F18BF4EF0010EA0
:10066000A4F1FF04B6F5007F64F5407404D25FEA9C
:100670004E0E6D4146EB060642EAC62141EA55514F
:100680004FEAC52040EA5E504FEACE2EB4F1FD0C91
:1006900088BFBCF5E06F1ED8BEF1004F08BF5FEA0F
:1006A000500E50F1000041EB045170BD06F00046C1
:1006B00046EA010140EA020081EA0301B4EB5C046E
:1006C000C2BFD4EB0C0541EA045170BD41F4801166
:1006D0004FF0000E013C00F3AB8014F1360FDEBF8B
:1006E000002001F0004170BDC4F10004203C35DA67
:1006F0000C341BDC04F11404C4F1200500FA05F3EA
:1007000020FA04F001FA05F240EA020001F000428A
:1007100021F0004110EBD37021FA04F642EB060100
:100720005EEA430E08BF20EAD37070BDC4F10C042A
:10073000C4F1200500FA04F320FA05F001FA04F2EE
:1007400040EA020001F0004110EBD37041F10001DA
:100750005EEA430E08BF20EAD37070BDC4F12005E5
:1007600000FA05F24EEA020E20FA04F301FA05F24D
:1007700043EA020321FA04F001F0004121FA04F2F5
:1007800020EA020000EBD3705EEA430E08BF20EAC5
:10079000D37070BD94F0000F0FD101F000464000FF
:1007A00041EB010111F4801F08BF013CF7D041EA81
:1007B000060195F0000F18BF704703F00046520085
:1007C00043EB030313F4801F08BF013DF7D043EA56
:1007D0000603704794EA0C0F0CEA135518BF95EA0C
:1007E0000C0F0CD050EA410618BF52EA4306D1D193
:1007F00081EA030101F000414FF0000070BD50EAB2
:10080000410606BF1046194652EA430619D094EA3B
:100810000C0F02D150EA013613D195EA0C0F05D125
:1008200052EA03361CBF104619460AD181EA030179
:1008300001F0004141F0FE4141F470014FF0000031
:1008400070BD41F0FE4141F4780170BD70B54FF0CC
:10085000FF0C4CF4E06C1CEA11541DBF1CEA13554C
:1008600094EA0C0F95EA0C0F00F0A7F8A4EB05042E
:1008700081EA030E52EA03354FEA013100F0888025
:100880004FEA03334FF0805545EA131343EA1263EE
:100890004FEA022245EA111545EA10654FEA0026A3
:1008A0000EF000419D4208BF964244F1FD0404F55C
:1008B000407402D25B084FEA3202B61A65EB0305B8
:1008C0005B084FEA32024FF480104FF4002CB6EB75
:1008D000020E75EB030E22BFB61A754640EA0C00F5
:1008E0005B084FEA3202B6EB020E75EB030E22BF35
:1008F000B61A754640EA5C005B084FEA3202B6EB76
:10090000020E75EB030E22BFB61A754640EA9C0034
:100910005B084FEA3202B6EB020E75EB030E22BF04
:10092000B61A754640EADC0055EA060E18D04FEAC2
:10093000051545EA16754FEA06164FEAC30343EA62
:1009400052734FEAC2025FEA1C1CC0D111F4801F2F
:100950000BD141EA00014FF000004FF0004CB6E728
:1009600011F4801F04BF01430020B4F1FD0C88BFC7
:10097000BCF5E06F3FF6AFAEB5EB030C04BFB6EBD2
:10098000020C5FEA500C50F1000041EB045170BDC5
:100990000EF0004E4EEA113114EB5C04C2BFD4EBF2
:1009A0000C0541EA045170BD41F480114FF0000E76
:1009B000013C90E645EA060E8DE60CEA135594EAF2
:1009C0000C0F08BF95EA0C0F3FF43BAF94EA0C0FF5
:1009D0000AD150EA01347FF434AF95EA0C0F7FF46A
:1009E00025AF104619462CE795EA0C0F06D152EABE
:1009F00003353FF4FDAE1046194622E750EA4106A2
:100A000018BF52EA43067FF4C5AE50EA41047FF4B2
:100A10000DAF52EA43057FF4EBAE12E74FF0FF3C17
:100A200006E000BF4FF0010C02E000BF4FF0010CE8
:100A30004DF804CD4FEA410C7FEA6C5C4FEA430C61
:100A400018BF7FEA6C5C1BD001B050EA410C0CBFB0
:100A500052EA430C91EA030F02BF90EA020F002012
:100A6000704710F1000F91EA030F58BF994208BF79
:100A700090422CBFD8176FEAE37040F00100704736
:100A80004FEA410C7FEA6C5C02D150EA013C07D18D
:100A90004FEA430C7FEA6C5CD6D152EA033CD3D0D8
:100AA0005DF8040B704700BF8446104662468C46D2
:100AB0001946634600E000BF01B5FFF7B7FF002805
:100AC00048BF10F1000F01BD4DF808EDFFF7F4FF2E
:100AD0000CBF012000205DF808FB00BF4DF808EDB9
:100AE000FFF7EAFF34BF012000205DF808FB00BFDC
:100AF0004DF808EDFFF7E0FF94BF012000205DF8FE
:100B000008FB00BF4DF808EDFFF7CEFF94BF0120B2
:100B100000205DF808FB00BF4DF808EDFFF7C4FFAB
:100B200034BF012000205DF808FB00BF4FEA410CF4
:100B30007FEA6C5C02D150EA013C0AD14FEA430CD7
:100B40007FEA6C5C02D152EA033C02D14FF0000014
:100B500070474FF0010070474FEA410212F5001252
:100B600015D211D56FF47873B3EB625212D94FEAF4
:100B7000C12343F0004343EA505311F0004F23FADE
:100B800002F018BF404270474FF00000704750EA33
:100B9000013005D111F0004008BF6FF000407047F0
:100BA0004FF00000704700BF4A0011D212F500124A
:100BB00011D20DD56FF47873B3EB62520ED44FEAB5
:100BC000C12343F0004343EA505323FA02F0704735
:100BD0004FF00000704750EA013002D14FF0FF3073
:100BE00070474FF0000070474FEA4102B2F1E04316
:100BF00024BFB3F5001CDCF1FE5C0DD901F0004C04
:100C00004FEAC0024CEA5070B2F1004F40EB830053
:100C100008BF20F00100704711F0804F21D113F17F
:100C20003872BCBF01F00040704741F480114FEAB8
:100C30005252C2F11802C2F1200C10FA0CF320FA41
:100C400002F018BF40F001004FEAC1234FEAD3235E
:100C500003FA0CFC40EA0C0023FA02F34FEA4303C8
:100C6000CCE77FEA625307D150EA01331EBF4FF051
:100C7000FE4040F44000704701F0004040F0FE406C
:100C800040F40000704700BF53B94AB9002908BFBB
:100C900000281CBF4FF0FF314FF0FF3000F074B957
:100CA000ADF1080C6DE904CE00F006F8DDF804E0C3
:100CB000DDE9022304B070472DE9F047089D0446A2
:100CC0008E46002B4DD18A42944669D9B2FA82F2FF
:100CD00052B101FA02F3C2F1200120FA01F10CFA3B
:100CE00002FC41EA030E94404FEA1C48210CBEFB73
:100CF000F8F61FFA8CF708FB16E341EA034306FBFC
:100D000007F199420AD91CEB030306F1FF3080F08A
:100D10001F81994240F21C81023E63445B1AA4B2D7
:100D2000B3FBF8F008FB103344EA034400FB07F779
:100D3000A7420AD91CEB040400F1FF3380F00A81BA
:100D4000A74240F207816444023840EA0640E41BAF
:100D500000261DB1D4400023C5E900433146BDE85B
:100D6000F0878B4209D9002D00F0EF800026C5E9FD
:100D7000000130463146BDE8F087B3FA83F6002E15
:100D80004AD18B4202D3824200F2F980841A61EB8D
:100D9000030301209E46002DE0D0C5E9004EDDE7AB
:100DA00002B9FFDEB2FA82F2002A40F09280A1EB93
:100DB0000C014FEA1C471FFA8CFE0126200CB1FBE8
:100DC000F7F307FB131140EA01410EFB03F08842E1
:100DD00008D91CEB010103F1FF3802D2884200F26E
:100DE000CB804346091AA4B2B1FBF7F007FB101100
:100DF00044EA01440EFB00FEA64508D91CEB04049E
:100E000000F1FF3102D2A64500F2BB800846A4EBF8
:100E10000E0440EA03409CE7C6F12007B34022FAE3
:100E200007FC4CEA030C20FA07F401FA06F31C4312
:100E3000F9404FEA1C4900FA06F3B1FBF9F8200C1F
:100E40001FFA8CFE09FB181140EA014108FB0EF065
:100E5000884202FA06F20BD91CEB010108F1FF3AB5
:100E600080F08880884240F28580A8F102086144C1
:100E7000091AA4B2B1FBF9F009FB101144EA0141CF
:100E800000FB0EFE8E4508D91CEB010100F1FF347A
:100E90006CD28E456AD90238614440EA0840A0FB12
:100EA0000294A1EB0E01A142C846A64656D353D0E8
:100EB0005DB1B3EB080261EB0E0101FA07F722FA0C
:100EC00006F3F1401F43C5E9007100263146BDE835
:100ED000F087C2F12003D8400CFA02FC21FA03F398
:100EE000914001434FEA1C471FFA8CFEB3FBF7F019
:100EF00007FB10360B0C43EA064300FB0EF69E423E
:100F000004FA02F408D91CEB030300F1FF382FD2D6
:100F10009E422DD9023863449B1B89B2B3FBF7F67E
:100F200007FB163341EA034106FB0EF38B4208D957
:100F30001CEB010106F1FF3816D28B4214D9023E98
:100F40006144C91A46EA004638E72E46284605E7B6
:100F50000646E3E61846F8E64B45A9D2B9EB020887
:100F600064EB0C0E0138A3E74646EAE7204694E717
:100F70004046D1E7D0467BE7023B614432E730464A
:100F800009E76444023842E7704700BF002800F0D8
:100F9000CC8070B5044690F83D30002B77D02423E8
:100FA00084F83D302268136823F00103136022683F
:100FB000136843F4004313602268136823F400436A
:100FC000136001F00DFB62685A4B9A4264D85A4B89
:100FD00098428CBF00230123002B40F0A880574982
:100FE000A1FB00318B0C25686A6822F03F0242EABF
:100FF00091426A6021680A6A22F03F0266684D4D9C
:10100000AE424FD8013313430B622168CA6922F400
:101010004F4222F0FF026668464B9E424CD8431E68
:101020007600B3FBF6F3013340F6FC70034278D050
:10103000C3F30B031343CB6121680B6823F0C00398
:10104000E269206A024313430B6021688B6823F432
:10105000034323F0FF032269E068024313438B60DC
:101060002168CB6823F0FF036269A0690243134340
:10107000CB602268136843F00103136000202064F2
:10108000202384F83D30206384F83E0070BD80F852
:101090003C3002F043F982E7294B98428CBF002391
:1010A000012399E74FF4967505FB03F3254DA5FB46
:1010B00003539B090133A6E7A368BBB9451E06EBA2
:1010C000460CB5FBFCF50135C5F30B05B5FA85F506
:1010D0006D0945BBC3B9013806EB4603B0FBF3F31A
:1010E0000133C3F30B0343F40043A3E7451E06EBB0
:1010F000860C0CEB8C0CB5FBFCF50135C5F30B0530
:10110000B5FA85F56D09E4E7013806EB860303EBD4
:101110008303B0FBF3F30133C3F30B0343F4404306
:1011200088E7042386E7012384E701207047012034
:10113000ACE700BFA08601007F841E0083DE1B4356
:10114000FF083D00D34D621030B4036A23F0010361
:101150000362036A4268846924F073040D682C43B7
:1011600023F0020C8B6843EA0C03104DA84203D015
:1011700005F58065A84205D123F00803CD682B430F
:1011800023F00403094DA84203D005F58065A84269
:1011900005D122F440724D692A438D692A43426089
:1011A00084614A684263036230BC704700000140BA
:1011B00030B4036A23F480730362036A4268C4692B
:1011C00024F0730C0C6844EA0C0523F400738C685B
:1011D00043EA0423114CA04203D004F58064A042EA
:1011E00006D123F40063CC6843EA042323F480632C
:1011F0000A4CA04203D004F58064A04207D122F437
:1012000040524C6942EA04128C6942EA041242607C
:10121000C5614A68C263036230BC70470000014088
:1012200030B4036A23F480530362036A4468C269DA
:1012300022F4E6420D6842EA052223F400538D6849
:1012400043EA0533094DA84203D005F58065A8425D
:1012500004D124F480444D6944EA85144460C26199
:101260004A680264036230BC704700BF000001405E
:101270007047022380F83D300268936803F007034B
:10128000062B03D0136843F001031360012380F899
:101290003D30002070470268D36843F00103D360FB
:1012A0000268936803F00703062B03D0136843F02A
:1012B0000103136000207047704770477047704704
:1012C00010B5044603681A6912F0020F11D0DA68EB
:1012D00012F0020F0DD06FF002021A6101230377A2
:1012E00003689B6913F0030F70D0FFF7E6FF00233C
:1012F000237723681A6912F0040F12D0DA6812F00B
:10130000040F0ED06FF004021A61022323772368C2
:101310009B6913F4407F5FD02046FFF7CEFF002388
:10132000237723681A6912F0080F12D0DA6812F0D6
:10133000080F0ED06FF008021A6104232377236888
:10134000DB6913F0030F4ED02046FFF7B6FF0023F2
:10135000237723681A6912F0100F12D0DA6812F09E
:10136000100F0ED06FF010021A6108232377236844
:10137000DB6913F4407F3DD02046FFF79EFF00233A
:10138000237723681A6912F0010F03D0DA6812F08C
:10139000010F36D123681A6912F0800F03D0DA6882
:1013A00012F0800F34D123681A6912F0400F03D075
:1013B000DA6812F0400F32D123681A6912F0200F58
:1013C00003D0DA6812F0200F30D110BDFFF774FFA0
:1013D0002046FFF773FF8AE72046FFF76DFF2046A0
:1013E000FFF76CFF9BE72046FFF766FF2046FFF7FD
:1013F00065FFACE72046FFF75FFF2046FFF75EFF83
:10140000BDE76FF001021A61204603F035FBC1E72A
:101410006FF080021A61204600F062FAC3E76FF0B5
:1014200040021A612046FFF74AFFC5E76FF020022D
:101430001A61204600F053FAC7E700000368304AFB
:10144000904212D0B0F1804F0FD0A2F57C42904272
:101450000BD002F58062904207D002F58062904284
:1014600003D002F57842904203D123F070034A681A
:101470001343234A90422AD0B0F1804F27D0A2F5DF
:101480007C42904223D002F5806290421FD002F548
:10149000806290421BD002F57842904217D002F54C
:1014A0007052904213D002F5806290420FD002F544
:1014B000806290420BD0A2F59832904207D002F59C
:1014C0008062904203D002F58062904203D123F4FF
:1014D0004073CA68134323F080034A6913430360CF
:1014E0008B68C3620B688362054B984203D003F597
:1014F0008063984201D10B69036301234361704704
:1015000000000140B0B110B5044690F83D3063B121
:10151000022384F83D30214651F8040BFFF78EFF7B
:10152000012384F83D30002010BD80F83C30FFF7E7
:101530009FFEEDE701207047B0B110B5044690F86A
:101540003D3063B1022384F83D30214651F8040B4D
:10155000FFF774FF012384F83D30002010BD80F8B0
:101560003C3002F0C3F8EDE70120704700284CD072
:10157000F8B50C46054690F83D30002B40D00223CC
:1015800085F83D302A68936823F4804323F00703ED
:101590009360294651F8040BFFF750FF29688A68C9
:1015A0008B690E6A2068104323F4407C2CF0030CF6
:1015B000A268A36942EA032343EA0C0323F47C43B1
:1015C00023F0FC03E269E76847EA022C4CEA030CCB
:1015D000226A1303226943EA021343EA0C0326F04A
:1015E000AA066268646942EA041232438860296884
:1015F0008B612B681A62012385F83D300020F8BD0D
:1016000080F83C3001F08EFFB9E701207047000000
:1016100030B4036A23F010030362036A44688269EA
:1016200022F4E6420D6842EA052223F020038D6889
:1016300043EA0513114DA84203D005F58065A84281
:1016400006D123F08003CD6843EA051323F040035D
:101650000A4DA84203D005F58065A84207D124F4BD
:1016600040644D6944EA85048D6944EA8504446018
:1016700082614A688263036230BC704700000140A7
:1016800038B590F83C30012B66D004460D46012356
:1016900080F83C30022380F83D300C2A1AD8DFE86D
:1016A00002F00719191920191919341919194700C5
:1016B0000068FFF749FD2268936943F008039361CE
:1016C0002268936923F0040393612268936929696E
:1016D0000B439361012384F83D30002084F83C00E3
:1016E00038BD0068FFF794FF2268936943F40063F4
:1016F00093612268936923F48063936122689369FC
:10170000296943EA01239361E4E70068FFF750FD8C
:101710002268D36943F00803D3612268D36923F0B8
:101720000403D3612268D36929690B43D361D1E7EC
:101730000068FFF775FD2268D36943F40063D36145
:101740002268D36923F48063D3612268D36929694D
:1017500043EA0123D361BDE70220C1E701F01F0185
:10176000012303FA01FC036A23EA0C030362036A00
:1017700002FA01F10B4303627047000010B5044602
:1017800001220068FFF7EAFF23680B4A934203D067
:1017900002F58062934203D15A6C42F400425A64CB
:1017A0002268936803F00703062B03D0136843F005
:1017B00001031360002010BD0000014010B5044675
:1017C00061B1042916D0012200210068FFF7C6FF8D
:1017D000012204212068FFF7C1FF04E0012200215B
:1017E0000068FFF7BBFF2268136843F00103136032
:1017F000002010BD012204210068FFF7AFFFF2E7CF
:1018000090F83C30012B3DD010B4012380F83C30DF
:10181000022380F83D3003685A689C6822F0700CFF
:101820000A6842EA0C025A600368174A93421AD0C7
:10183000B3F1804F17D0A2F57C42934213D002F54A
:10184000806293420FD002F5806293420BD002F582
:101850007842934207D002F57052934203D0A2F52A
:101860009432934204D124F080044A6814439C606B
:10187000012380F83D30002380F83C3018465DF8A5
:10188000044B7047022070470000014090F83C3044
:10189000012B22D0012380F83C30CB6823F4407325
:1018A0008A68134323F480634A68134323F4006374
:1018B0000A68134323F480530A69134323F4005343
:1018C0004A69134323F48043CA691343026853648B
:1018D000002380F83C30184670470220704770475C
:1018E00070470268D36823F0C003D360202380F8D8
:1018F000393070470268D36823F49073D36002686C
:10190000536923F001035361202380F83A30704774
:1019100090F83930DBB2212B01D002207047836868
:10192000B3F5805F17D0036A5A1C02621A78036805
:101930005A60C38C9BB2013B9BB2C3844BB9026813
:10194000D36823F08003D3600268D36843F0400378
:10195000D36000207047036A1B880268C3F3080342
:10196000536003691BB9036A02330362E1E7036A48
:1019700001330362DDE7000038B5044602681369ED
:1019800023F44053C1680B43136183680269134316
:1019900042691343C2691A430168CB6823F41643B2
:1019A00023F00C031343CB600268536923F44073A4
:1019B00081690B435361C369B3F5004F35D00368A8
:1019C000604A934200F0918002F58062934200F0F9
:1019D0008C8000F005FE0021031849411B1841F1DD
:1019E0000001C90041EA5371DB00181863684FEA2F
:1019F00083024FEA937341F10001FFF745F9524D1D
:101A0000A5FB00325109642303FB11031B01323390
:101A1000A5FB03235B0903F0F00202EB011203F0C4
:101A20000F03216813448B608AE00368454A9342A0
:101A30002FD002F5806293422BD000F0D1FD00231D
:101A4000021843EB0301121841F10001C90041EAF9
:101A50005271D200101841F10001626892185B4186
:101A6000FFF712F9384DA5FB00325109642303FB3F
:101A70001103DB003233A5FB03235B095A0002F498
:101A8000F87202EB011203F00703216813448B6024
:101A900056E000F0B5FD0023021843EB03011218D5
:101AA00041F10001C90041EA5271D200101841F120
:101AB0000001626892185B41FFF7E6F8224DA5FB32
:101AC00000325109642303FB1103DB003233A5FB11
:101AD00003235B095A0002F4F87202EB011203F0CF
:101AE0000703216813448B602AE000F089FD002180
:101AF000031849411B1841F10001C90041EA537123
:101B0000DB00181863684FEA83024FEA937341F1D0
:101B10000001FFF7B9F80C4DA5FB00325109642311
:101B200003FB11031B013233A5FB03235B0903F005
:101B3000F00202EB011203F00F03216813448B60E3
:101B400038BD00BF001001401F85EB5158B310B5E0
:101B5000044690F839300BB3242384F839302268D6
:101B6000D36823F40053D3602046FFF705FF2268B3
:101B7000136923F4904313612268536923F02A0305
:101B800053612268D36843F40053D3600020E063BC
:101B9000202384F8393084F83A3010BD80F838308A
:101BA00001F0B8FED8E701207047000038B590F882
:101BB0003930DBB2202B31D10446002930D0002A45
:101BC00030D090F83830012B2ED0012380F83830F7
:101BD00001628284C2840025C563212380F83930E4
:101BE000036B1248D863236B11481864236B1148A8
:101BF000D864236B1D6520681346021D206B00F01E
:101C000001FF23686FF040021A6084F838502268A0
:101C1000536943F080035361284600E0022038BD39
:101C20000120FCE70120FAE70220F8E7E31C0008A6
:101C30002F1D0008231E000830B583B0044690F81D
:101C40003A00C0B220283CD100293DD0002A3DD026
:101C500094F83830012B3BD0012384F83830A1624E
:101C6000A2850025E563222384F83A30636B194886
:101C7000D863636B18481864636B1848D864636B47
:101C80001D65206813460A46011D606B00F0BAFE10
:101C9000019523681A6801925A680192019A84F8A2
:101CA0003850DA6842F48072DA602268536943F08F
:101CB000010353612268536943F04003536128468E
:101CC00000E0022003B030BD0120FBE70120F9E76E
:101CD0000220F7E7391D0008171E0008231E000820
:101CE000704708B50346806B1B681B6813F4807F40
:101CF0000CD10023C3840268536923F0800353612D
:101D00000268D36843F04003D36008BDFFF7E8FFE3
:101D1000FBE708B50168CA6822F04002CA602022C9
:101D200080F83920FFF7DCFF002008BD704708B5B8
:101D3000806BFFF7FBFF08BD08B50346806B1B688F
:101D40001B6813F4807F13D10023C3850268D36816
:101D500023F48073D3600268536923F00103536155
:101D60000268536923F040035361202380F83A301E
:101D700002F02CFF08BD08B590F83A30DBB2222BF8
:101D800046D18368B3F5805F0FD003690BBB03684E
:101D90005A68836A591C81621A70C38D9BB2013BD9
:101DA0009BB2C385F3B1002008BD826A036943B9C1
:101DB00003685B68C3F308031380836A023383629A
:101DC000EBE703685B68DBB21380836A01338362ED
:101DD000E3E703685B68826A511C816203F07F035A
:101DE0001370DAE70268D36823F02003D360026837
:101DF000D36823F48073D3600268536923F001032E
:101E00005361202380F83A3002F0E0FE0020CBE757
:101E10000220C9E7704708B5806BFFF7FBFF08BDDC
:101E2000704710B5846B23685A6994F83930DBB277
:101E3000212B10D023685A6902F0400294F83A30FE
:101E4000DBB2222B11D0E36B43F01003E363204697
:101E5000FFF7E6FF10BD02F08002002AEAD000235F
:101E6000E3842046FFF73DFDE4E7002AEBD00023A2
:101E7000E3852046FFF73EFDE5E7000010B5044688
:101E800002681368D168526913F00F0005D113F08E
:101E9000200F02D011F0200F13D128B112F001024F
:101EA00013D111F4907F10D113F0800F02D011F0F4
:101EB000800F6CD113F0400F02D011F0400F6AD1A7
:101EC00010BD2046FFF757FFFAE713F0010F06D0C9
:101ED00011F4807F03D0E06B40F00100E06313F069
:101EE000040F04D01AB1E06B40F00200E06313F07D
:101EF000020F04D01AB1E06B40F00400E06313F06D
:101F0000080F07D011F0200F00D11AB1E26B42F098
:101F10000802E263E26B002AD2D013F0200F02D055
:101F200011F0200F21D123685B6903F04003E26BBD
:101F300012F0080F00D123B32046FFF7DBFC236823
:101F40005A6912F0400F18D05A6922F040025A61C3
:101F5000636B73B1124A1A65606B00F088FD00284C
:101F6000AED0606B036D9847AAE72046FFF703FFEA
:101F7000D9E72046FFF754FFA2E72046FFF750FFBE
:101F80009EE72046FFF74CFF0023E36398E72046D7
:101F9000FFF7BEFC94E72046FFF7BBFE90E700BFCB
:101FA000A51F000808B5806B0023C385C384FFF715
:101FB00037FF08BD002800F0DA8170B582B0044612
:101FC000036813F0010F3BD09F4B9B6803F00C0399
:101FD000042B2CD09C4B9B6803F00C03082B21D0C6
:101FE0006368B3F5803F4FD0B3F5A02F52D0964B26
:101FF0001A6822F480321A601A6822F480221A6069
:102000006368002B50D000F0B1FE05468E4B1B6874
:1020100013F4003F14D100F0A9FE401B6428F5D949
:102020000320ABE1884B5B6813F4800FD8D0864B5C
:102030001B6813F4003F03D06368002B00F0998104
:10204000236813F0020F54D07F4B9B6813F00C0FE2
:102050003ED07D4B9B6803F00C03082B33D0E36824
:10206000002B68D0794B01221A6000F07FFE0546F4
:10207000754B1B6813F0020F54D100F077FE401B24
:102080000228F5D9032079E16F4A136843F48033BD
:102090001360B5E76C4B1A6842F480221A601A6824
:1020A00042F480321A60ABE700F060FE0546664BF2
:1020B0001B6813F4003FC3D000F058FE401B642897
:1020C000F5D903205AE1604B5B6813F4800FC6D149
:1020D0005D4B1B6813F0020F03D0E368012B40F047
:1020E0004A81594A136823F0F803216943EAC1037E
:1020F0001360236813F0080F42D063696BB3534B2E
:102100000122C3F8802E00F031FE05464E4B5B6F76
:1021100013F0020F34D100F029FE401B0228F5D93C
:1021200003202BE1484A136823F0F803216943EAAE
:10213000C1031360DDE7454B00221A6000F016FE74
:102140000546414B1B6813F0020FD2D000F00EFE83
:10215000401B0228F5D9032010E13C4B0022C3F8B4
:10216000802E00F003FE0546374B5B6F13F0020F25
:1021700006D000F0FBFD401B0228F5D90320FDE04E
:10218000236813F0040F77D02F4B1B6C13F0805F84
:1021900033D1002301932C4B1A6C42F080521A6405
:1021A0001B6C03F080530193019B0125284B1B6896
:1021B00013F4807F23D0A368012B34D0052B38D0B3
:1021C000214B1A6F22F001021A671A6F22F00402E3
:1021D0001A67A368002B3DD000F0C8FD06461A4BD5
:1021E0001B6F13F0020F46D100F0C0FD801B41F2BF
:1021F00088339842F3D90320C0E00025D6E7144A7B
:10220000136843F48073136000F0B0FD0646104B72
:102210001B6813F4807FCED100F0A8FD801B02283C
:10222000F5D90320AAE0084A136F43F001031367AE
:10223000CFE7054B1A6F42F004021A671A6F42F09B
:1022400001021A67C5E700BF00380240000047429C
:102250000070004000F08AFD06464F4B1B6F13F0E4
:10226000020F08D000F082FD801B41F288339842B3
:10227000F3D9032082E0E5B9A369002B7DD0464A5B
:10228000926802F00C02082A51D0022B17D0434B5F
:1022900000221A6600F06AFD04463F4B1B6813F0EB
:1022A000007F42D000F062FD001B0228F5D9032018
:1022B00064E0394A136C23F080531364DCE7374B36
:1022C00000221A6600F052FD0546334B1B6813F0DE
:1022D000007F06D000F04AFD401B0228F5D90320FC
:1022E0004CE0E369226A1343626A43EA8213A26AFA
:1022F0005208013A43EA0243E26A43EA0263264A89
:102300005360264B01221A6600F030FD0446224B32
:102310001B6813F0007F06D100F028FD001B022887
:10232000F5D903202AE0002028E0002026E0012B38
:1023300026D0194B9B6803F48001E269914221D1B8
:1023400003F03F02216A8A421ED1616A47F6C072D9
:102350001A408A421AD103F44032A16A8A4217D144
:1023600003F07063E26A934214D1002006E001207A
:102370007047012002E0012000E0002002B070BDA3
:102380000120FBE70120F9E70120F7E70120F5E74D
:102390000120F3E70120F1E7003802400000474246
:1023A00008B5314B9B6803F00C03042B57D0082B66
:1023B00057D12D4B5A6802F03F025B6813F4800F2F
:1023C0002AD0294B5968C1F3881C4FEA4C11B1EB54
:1023D0000C006EEB0E0E4FEA8E1343EA9063810100
:1023E000091A63EB0E03DB0043EA5173C90011EBDA
:1023F0000C0C43F10003590200234FEA4C2041EA40
:10240000DC51FEF741FC184B5B68C3F30143013319
:102410005B00B0FBF3F025E0134B5968C1F3881C57
:102420004FEA4C11B1EB0C006EEB0E0E4FEA8E131F
:1024300043EA90638101091A63EB0E03DB0043EA70
:102440005173C90011EB0C0C43F1000399020023F6
:102450004FEA8C2041EA9C51FEF716FCD3E7034873
:1024600000E0034808BD00BF0038024000127A00B7
:102470000024F400002800F09B8070B50D4604464F
:102480004F4B1B6803F00F038B4208D2CBB24C4A70
:102490001370136803F00F038B4240F08B802368A6
:1024A00013F0020F17D013F0040F04D0454A9368BD
:1024B00043F4E0539360236813F0080F04D0414ABB
:1024C000936843F4604393603E4A936823F0F003BB
:1024D000A1680B439360236813F0010F32D0636847
:1024E000012B21D09A1E012A25D9364A126812F0F2
:1024F000020F61D033498A6822F0030213438B60D4
:1025000000F034FC06462F4B9B6803F00C03626816
:10251000B3EB820F16D000F029FC801B41F2883308
:102520009842F0D9032042E0264A126812F4003F94
:10253000E0D101203BE0234A126812F0007FD9D19C
:10254000012034E01E4B1B6803F00F03AB4207D998
:10255000EAB21B4B1A701B6803F00F03AB422DD17C
:10256000236813F0040F06D0164A936823F4E0534F
:10257000E1680B439360236813F0080F07D0114AFA
:10258000936823F46043216943EAC1039360FFF732
:1025900007FF0C4B9B68C3F303130B4AD35CD84073
:1025A0000A4B18600A4B186800F0A2FD002070BDAD
:1025B000012070470120FAE70120F8E70120F6E743
:1025C000003C024000380240B88C00080C0000209B
:1025D00008000020014B1868704700BF0C00002065
:1025E00008B5FFF7F7FF044B9B68C3F38223034A48
:1025F000D35CD84008BD00BF00380240C88C00083A
:1026000008B5FFF7E7FF044B9B68C3F34233034A67
:10261000D35CD84008BD00BF00380240C88C000819
:102620000F2303600B4B9A6802F0030242609A6822
:1026300002F0F00282609A6802F4E052C2609B6885
:10264000DB0803F4E0530361034B1B6803F00F0343
:102650000B60704700380240003C024000230F2B03
:1026600000F2DA80F0B583B03AE0072200E0002201
:10267000AA4032430234694D45F82420684A146860
:102680006FEA0C0224EA0C054E6816F4803F01D074
:102690004CEA0405624C2560646802EA04054E6851
:1026A00016F4003F01D04CEA04055D4C6560A46857
:1026B00002EA04054E6816F4801F01D04CEA0405B6
:1026C000574CA560E46822404D6815F4001F01D006
:1026D0004CEA0402524CE26001330F2B00F29A8064
:1026E00001229A400C6804EA020C32EA0404F3D195
:1026F0004C68651E012D03D9112C01D0122C12D16A
:1027000085685E000324B44025EA0405CC68B44023
:102710002C438460456825EA02054C68C4F3001226
:102720009A402A434260C5684FEA430E032404FAE4
:102730000EF4E24325EA04058C6804FA0EF42C43F7
:10274000C4604C68022C01D0122C0FD1DD08083572
:1027500050F8257003F00704A6000F24B44027EAC0
:1027600004070C69B4403C4340F825400468144019
:102770004A6802F0030202FA0EF2224302604A683B
:1027800012F0805FA8D000220192264A546C44F4D3
:1027900080445464526C02F480420192019A9C0875
:1027A000A51C1E4A52F8256003F0030295000F2273
:1027B000AA4026EA02061C4A90423FF458AF02F5AE
:1027C000806290421AD002F58062904218D002F5E1
:1027D0008062904216D002F58062904214D002F5D9
:1027E0008062904212D002F58062904210D002F5D1
:1027F000806290423FF439AF082239E7012237E77F
:10280000022235E7032233E7042231E705222FE7CE
:1028100006222DE703B0F0BD704700BF003801402D
:10282000003C014000380240000002400AB18161D2
:10283000704709048161704730B405682C6824F43E
:1028400080242C60046863608368402B05D0036893
:1028500099600368DA6030BC704703689A60036867
:10286000D960F8E710B40368D9B210390C4AA2FB5A
:10287000014212090B4CA25CC2655F2909D923F4FD
:102880007F7323F0030304338365806D5DF8044B8D
:10289000704723F47F7323F003038365F5E700BFDC
:1028A000ABAAAAAAB08C0008836A826992B9012BEC
:1028B0000AD0022B02D00BB100207047C36A13F07C
:1028C000807F28D100207047C36AB3F1C07F24D035
:1028D00000207047B2F5005F09D0022B25D9032BE9
:1028E00025D1C36A13F0807F23D100207047032BCA
:1028F00003D8DFE803F01404140A00207047C36A09
:1029000013F0807F0DD100207047C36AB3F1C07F00
:1029100009D0002070470120704701207047012036
:102920007047012070470120704701207047002048
:10293000704701207047000070B5044600F016FA99
:10294000002C5BD00546002384F83430022384F841
:1029500035302268136823F00103136023681A6876
:1029600012F0010F0AD000F001FA431B052BF5D934
:1029700020236365032084F8350070BD1A68204861
:1029800010406168A2680A43E1680A4321690A436A
:1029900061690A43A1690A43E1690A43216A0A435A
:1029A0000243616A04291ED01A602668756925F001
:1029B0000705636A1D43042B07D1A36A1D43E36A1D
:1029C0001BB12046FFF770FF90B975612046FFF7F5
:1029D00049FFE26D3F23934083600020606501233F
:1029E00084F83530C9E7E16A206B01430A43DBE72D
:1029F00040236365012084F83500BEE70120BCE771
:102A00003F8010F038B50446856D90F834000128F9
:102A10002BD0012084F8340094F83500C0B201288E
:102A200004D0002384F83430022038BD022084F81A
:102A30003500002060652046FFF7FEFEE26D3F2373
:102A40009340AB602268136843F016031360236C55
:102A500023B12268136843F00803136022681368E7
:102A600043F0010313600020DFE70220DDE790F868
:102A70003530DBB2022B03D0802343650120704741
:102A8000052380F835300268136823F001031360D2
:102A900000207047F0B583B0044600230193724BC9
:102AA0001D68724BA3FB0535AD0A876D3E68C26D8C
:102AB00008239340334210D003681A6812F0040FC1
:102AC0000BD01A6822F004021A60C26D08239340EA
:102AD000BB60436D43F001034365E26D0123934006
:102AE000334209D02268526912F0800F04D0BB60D3
:102AF000636D43F002036365E26D04239340334248
:102B000009D02268126812F0020F04D0BB60636D16
:102B100043F004036365E26D10239340334224D0F5
:102B20002268126812F0080F1FD0BB6023681A6871
:102B300012F4802F0DD01B6813F4002F04D1236CE6
:102B40009BB12046984710E0A36C73B1204698478C
:102B50000BE01A6812F4807F03D11A6822F0080291
:102B60001A60236C0BB120469847E26D20239340F6
:102B7000334255D02268126812F0100F50D0BB605B
:102B800094F83530DBB2052B0ED023681A6812F4A6
:102B9000802F33D01B6813F4002F2AD1636C002BD5
:102BA0003ED0204698473BE02268136823F0160386
:102BB00013602268536923F080035361236CA3B12F
:102BC0002268136823F008031360E26D3F239340EB
:102BD000BB60002384F83430012384F83530236D42
:102BE000002B3FD0204698473CE0A36C002BE7D158
:102BF000EBE7E36BA3B12046984711E01A6812F4A3
:102C0000807F09D11A6822F010021A60002384F82C
:102C10003430012384F83530E36B0BB120469847FC
:102C2000636DFBB1636D13F0010F17D0052384F8BA
:102C300035302268136823F001031360019B0133D0
:102C40000193AB4204D823681B6813F0010FF5D140
:102C5000002384F83430012384F83530E36C0BB161
:102C60002046984703B0F0BD0C000020B5814E1BF4
:102C7000074AD36823F4E0631B041B0C000200F432
:102C8000E060034343F0BF6343F40033D360704715
:102C900000ED00E000B5194BDB68C3F30223C3F17C
:102CA000070CBCF1040F28BF4FF0040C03F1040E15
:102CB000BEF1060F18D9033B4FF0FF3E0EFA0CFC95
:102CC00021EA0C0199400EFA03F322EA03031943A7
:102CD00000280BDB0901C9B200F1604000F561403A
:102CE00080F800135DF804FB0023E5E700F00F0017
:102CF0000901C9B2024B1954F4E700BF00ED00E02E
:102D000014ED00E0002807DB00F01F02400901235A
:102D10009340024A42F82030704700BF00E100E0D3
:102D200008B50B4B1A6842F400721A601A6842F434
:102D300080621A601A6842F480721A600320FFF7FA
:102D400097FF002000F0D4F900F0B0F9002008BD92
:102D5000003C0240034A1168034B1B780B4413608C
:102D6000704700BFEC05002004000020014B1868EC
:102D7000704700BFEC05002043684B609A688A608A
:102D8000516099600861036801330360704703690B
:102D9000416882688A60416851605A68824206D000
:102DA000002202611A68013A1A6018687047826846
:102DB0005A60F5E7084B1B681B6823B9074B4FF0B7
:102DC000FF321A607047044B1B68DB68DB685A6887
:102DD000024B1A60704700BFF405002094060020E3
:102DE000F8B53A4B1B68002B64D1394B1D6801358F
:102DF0001D60C5B9374B1B681B6843B14FF05003CA
:102E000083F31188BFF36F8FBFF34F8FFEE7314A13
:102E10001168314B186810601960304A136801332B
:102E20001360FFF7C7FF2E4B1B68AB4238D9002752
:102E30002C4B1B68DB6A03EB83039A002A4B9B58DD
:102E4000012B3CD901273AE00127224B1B681B6864
:102E500043B3204B1B68DB68DC6863689D4226D364
:102E6000261D3046FFF793FFA36A1BB104F118003B
:102E7000FFF78DFFE36A01229A401C49086802436C
:102E80000A6003EB83039A00314617481044FFF7AA
:102E900073FFE26A134B1B68DB6A9A42D4D2D4E711
:102EA0000027D2E70E4B4FF0FF321A60C0E70C4A02
:102EB0001360BDE70E4A13680133136000270D4B02
:102EC0001B6803B101273846F8BD00BF8C060020FF
:102ED0009C060020F4050020F8050020980600203C
:102EE00094060020F0050020FC050020900600203C
:102EF00088060020A0060020204B1B681BB1204B39
:102F000001221A6070471E4B00221A601D4B1B687D
:102F1000B3FA83F3DBB2C3F11F0303EB83018A002F
:102F200019498A5842B94FF0500383F31188BFF30F
:102F30006F8FBFF34F8FFEE7134903EB83008200CF
:102F40000A4450684068506003EB830C4FEA8C02DF
:102F500008321144884209D003EB83039A000A4BDC
:102F600013445B68DA68094B1A6070474068624630
:102F70009100054A0A445060EEE700BF8C0600202D
:102F8000A006002090060020FC050020F00500208F
:102F9000074B19680868B0E8F04F80F30988BFF361
:102FA0006F8F4FF0000080F311887047AFF30080FF
:102FB000F0050020000000000000000000000000FC
:102FC000EFF30980BFF36F8F154B1A681EF0100FD7
:102FD00008BF20ED108A20E9F04F10602DE90900AC
:102FE0004FF0500080F31188BFF34F8FBFF36F8F06
:102FF000FFF782FF4FF0000080F3118809BC1968C9
:103000000868B0E8F04F1EF0100F08BFB0EC108A4F
:1030100080F30988BFF36F8F704700BFAFF3008064
:10302000F005002008B54FF0500383F31188BFF37B
:103030006F8FBFF34F8FFFF7D3FE28B14FF0E02320
:103040004FF08052C3F8042D002383F3118808BD8C
:103050007047FEE7FEE7FEE7FEE7704708B5024867
:10306000FEF72EF908BD00BFA406002008B50248EF
:10307000FFF710FD08BD00BFD808002008B50248C2
:10308000FFF708FD08BD00BF7808002008B502481A
:10309000FEF7F4FE08BD00BF3809002008B502485D
:1030A000FEF7ECFE08BD00BF7809002000B583B034
:1030B000002200920D4B596C41F480415964596CC7
:1030C00001F48041009100990192196C41F0805106
:1030D00019641B6C03F080530193019B0F216FF067
:1030E0000100FFF7D7FD03B05DF804FB0038024094
:1030F00010B588B0014600223220FFF7CBFD322008
:10310000FFF700FE00240194144B1A6C42F00802F1
:103110001A641B6C03F008030193019B02A903A826
:10312000FFF77EFAFFF75CFA43000D48A0FB03238C
:103130009B0C013B0B480C4A026040F2E732C26034
:10314000436004618460FEF7DDF910B1012008B02E
:1031500010BD0448FEF79FF8F9E700BF00380240B1
:1031600083DE1B43A4060020000C0040054BD3F86F
:10317000882042F47002C3F888204FF000629A6001
:10318000704700BF00ED00E02DE9F0478CB000244F
:103190000794089409940A940B9401944A4B1A6B6F
:1031A00042F010021A631A6B02F010020192019AA7
:1031B00002941A6B42F004021A631A6B02F00402C2
:1031C0000292029A03941A6B42F080021A631A6BFD
:1031D00002F080020392039A04941A6B42F00102F7
:1031E0001A631A6B02F001020492049A05941A6B96
:1031F00042F002021A631A6B02F002020592059A6B
:1032000006941A6B42F008021A631B6B03F0080362
:103210000693069BDFF8BCA022464AF22A015046DC
:10322000FFF704FBDFF8B090224642F20E01484659
:10323000FFF7FCFADFF8A480224640F20441404642
:10324000FFF7F4FA214F22464FF402613846FFF7A8
:10325000EDFA1F4E224605213046FFF7E7FA4AF203
:103260002A0307930125089509950A9407A9504652
:10327000FFF7F4F942F20E030793089509950A94B3
:1032800007A94846FFF7EAF940F204430793089577
:1032900009950A9407A94046FFF7E0F94FF4026345
:1032A0000793089509950A9407A93846FFF7D6F9B8
:1032B00005230793089509950A9407A93046FFF757
:1032C000CDF90CB0BDE8F0870038024000040240A0
:1032D000000C0240001002400008024000000240C2
:1032E00008B50B480B4B03600B4B43600023836016
:1032F000C3604FF48042026143618361C361036232
:10330000FDF744FE00B908BD01F0C2FBFBE700BFBA
:10331000E406002000540040A086010030B589B0CA
:103320000023039304930593069307930268154BB8
:103330009A4201D009B030BD00250195124C236B93
:1033400043F002032363236B03F002030193019B09
:103350004FF4407303931223049301230593032333
:1033600006930423079303A90848FFF777F902950A
:10337000236C43F400132364236C03F400130293BF
:10338000029BD7E70054004000380240000402408E
:1033900000B58DB02422002103A802F04BFF0023CA
:1033A000019302931248134A0260436083604FF610
:1033B000FF72C260036143618361032303930123AE
:1033C0000593099303A9FEF7D1F850B9002301939F
:1033D000029301A90648FEF713FA28B90DB05DF86B
:1033E00004FB01F055FBF1E701F052FBF6E700BFEB
:1033F000380700200000014000B58DB024220021D4
:1034000003A802F017FF00230193029312484FF024
:1034100080420260436083604FF6FF72C2600361C6
:1034200083610323039301230593099303A9FEF703
:103430009DF850B900230193029301A90648FEF7B5
:10344000DFF928B90DB05DF804FB01F021FBF1E7CD
:1034500001F01EFBF6E700BF7807002000B58DB035
:103460002422002103A802F0E5FE00230193029329
:103470001148124A0260436083604FF6FF72C260D7
:10348000036183610323039301230593099303A934
:10349000FEF76CF850B900230193029301A9064886
:1034A000FEF7AEF928B90DB05DF804FB01F0F0FAB3
:1034B000F1E701F0EDFAF6E7B8070020000400405C
:1034C00000B58DB02422002103A802F0B3FE002332
:1034D000019302931148124A0260436083604FF6E1
:1034E000FF72C26003618361032303930123059389
:1034F000099303A9FEF73AF850B900230193029308
:1035000001A90648FEF77CF928B90DB05DF804FB67
:1035100001F0BEFAF1E701F0BBFAF6E7F807002088
:103520000008004070B590B000230B930C930D93EE
:103530000E930F930368664A93420BD0B3F1804F0A
:1035400040D0644A93426AD0634A934200F09D801F
:1035500010B070BD00250195604B5A6C42F001021D
:103560005A645A6C02F001020192019A02951A6B98
:1035700042F010021A631A6B02F010020292029AD1
:1035800003951A6B42F001021A631B6B03F00103EF
:103590000393039B4FF400630B9302260C960124C4
:1035A0000D940F940BA94E48FFF758F84FF4807311
:1035B0000B930C960D940E950F940BA94948FFF7A9
:1035C0004DF8C5E70021049103F50E331A6C42F063
:1035D00001021A641A6C02F001020492049A059125
:1035E0001A6B42F001021A631B6B03F0010305938F
:1035F000059B02240B940C9401250F95394E0BA9C1
:103600003046FFF72BF84FF400430B930C940D95C5
:103610000E940F950BA93046FFF720F898E7002588
:1036200006952E4B1A6C42F002021A641A6C02F0D4
:1036300002020692069A07951A6B42F001021A637B
:103640001A6B02F001020792079A08951A6B42F072
:1036500002021A631B6B03F002030893089B80238A
:103660000B9302240C9401260D960F940BA91D4870
:10367000FEF7F4FF10230B930C940D960E950F9408
:103680000BA91948FEF7EAFF62E700210991134BE5
:103690001A6C42F004021A641A6C02F004020992D5
:1036A000099A0A911A6B42F002021A631B6B03F02B
:1036B00002030A930A9BC0230B9302230C9301225B
:1036C0000D920F930BA90848FEF7C8FF40E700BF13
:1036D00000000140000400400008004000380240A3
:1036E0000010024000000240000402400268094B42
:1036F0009A4200D0704782B000230193064B5A6C67
:1037000042F002025A645B6C03F002030193019BD6
:1037100002B07047000401400038024000B587B095
:10372000002301930293039304930593026803F12A
:10373000804303F582339A4202D007B05DF804FB60
:10374000002300930A4B1A6B42F004021A631B6BAE
:1037500003F004030093009B4FF470730193022362
:1037600002930323059301A90248FEF777FFE4E7DC
:10377000003802400008024030B593B00024109495
:10378000119409940A940B940C940D940E940F9434
:1037900020252A46214601A802F04CFD3048314B35
:1037A00003604460856042F60313C36004614461B2
:1037B0008461FDF7C1FE00283CD1002310931193D2
:1037C00010A92748FEF71CF8002836D1602309937A
:1037D00000220A920B920C920D920E920F9209A95E
:1037E0001F48FDF74DFF58BB042209A91C48FDF7EF
:1037F00047FF40BB082209A91948FDF741FF28BB34
:103800000C2209A91648FDF73BFF10BB00230193CA
:1038100002930393049305934FF400520692089386
:1038200001A90F48FEF732F8B0B90D48FFF776FF4F
:1038300013B030BD01F02CF9BFE701F029F9C5E75D
:1038400001F026F9D0E701F023F9D3E701F020F9E0
:10385000D6E701F01DF9D9E701F01AF9E5E700BF55
:10386000380800200004014010B582B00024019403
:103870000D4B1A6B42F400121A631B6B03F4001316
:103880000193019B224621461020FFF703FA1020E6
:10389000FFF738FA224621460F20FFF7FBF90F20E9
:1038A000FFF730FA02B010BD0038024008B50A48F0
:1038B0000A4B03604FF4E133436000238360C3602D
:1038C00003610C2242618361C361FEF73FF900B9D5
:1038D00008BD01F0DDF8FBE778090020004C00404E
:1038E00008B50A480A4B03604FF4E13343600023F4
:1038F0008360C36003610C2242618361C361FEF790
:1039000025F900B908BD01F0C3F8FBE7380900202C
:103910000044004030B58BB0044600230593069365
:1039200007930893099303684E4A934204D04E4A82
:1039300093424DD00BB030BD002501954B4B1A6C16
:1039400042F400221A641A6C02F400220192019AD5
:1039500002951A6B42F004021A631B6B03F0040316
:103960000293029B4FF440630593022306930123C5
:103970000793032308930823099305A93C48FEF7FE
:103980006DFE3C483C4B03604FF0006343604023B6
:103990008360C5604FF480630361456185614FF4C6
:1039A0008073C3614FF4403303624562FEF7C4FF86
:1039B00058B9304B23639C63002211463420FFF733
:1039C00069F93420FFF79EF9B4E701F061F8F0E7F8
:1039D00000250395254B1A6C42F400321A641A6CC8
:1039E00002F400320392039A04951A6B42F0080223
:1039F0001A631B6B03F008030493049B6023059375
:103A000002230693012307930323089307230993B3
:103A100005A91A48FEF722FE19481A4B03604FF019
:103A2000006343608560C5604FF480630361456156
:103A300085614FF48073C3614FF4003303624562C4
:103A4000FEF77AFF58B90E4B63639C630022052191
:103A50002620FFF71FF92620FFF754F96AE701F047
:103A600017F8F0E7004C00400044004000380240E6
:103A7000000802407808002070600240000C0240FC
:103A8000D808002088600240024600200AE000BFFB
:103A90004FF060431B68002BF9D04FF0604383F870
:103AA00000C00130884210DA12F800C04FF06043C5
:103AB000D3F8803E13F0010FF3D04FF06043D3F8FA
:103AC000003E13F0010FE3D1EBE7704708B508465D
:103AD0001146FFF7D9FF08BDDFF834D0002103E01D
:103AE0000C4B5B58435004310B480C4B42189A4224
:103AF000F6D30B4A02E0002342F8043B094B9A42FA
:103B0000F9D3FFF733FB02F063FB01F019F87047BC
:103B1000000002201C93000800000020D0050020B7
:103B2000D0050020DC120020FEE7000000000000AD
:103B3000F8B5044605682B681B68586A00B2FCF7A4
:103B4000F1FC0BA3D3E90023FCF756FD06460F4614
:103B5000A888FCF7E7FC02460B4630463946FCF7DE
:103B600075FEFDF741F8E0600023A360F8BD00BFDB
:103B70006F1283C0CA211940F8B5044605682B6846
:103B80001B68586A00B2FCF7CDFC14A3D3E90023EC
:103B9000FCF732FD0022104BFCF72EFD06460F46C7
:103BA000AB8803EB83035800FCF7BCFC02460B46D2
:103BB00030463946FCF74AFEFDF716F860602B6880
:103BC0001B685B6A228A134423822B681B680022CD
:103BD0005A6294ED010AF8BD00408F406F1283C015
:103BE000CA211940034B93FBF0F080B2013880B238
:103BF000704700BF00BD010570B505460C4616466E
:103C00004FF4FA50FFF7EEFF06FB00F20D4B83FB7B
:103C100002131344D217C2EBE3321CB92B6892B2E1
:103C20005A6370BD042C05D0082C07D02B6892B2C3
:103C30001A64F6E72B6892B29A63F2E72B6892B2A5
:103C4000DA63EEE70180008008B50A464169006941
:103C5000FFF7D2FF08BD0000F8B5044610EE105A79
:103C60000068FCF771FC02460B460BA1D1E900018C
:103C7000FCF7ECFD06460F462846FCF765FC0246BD
:103C80000B4630463946FCF7B7FCFCF78DFF81B296
:103C90002046FFF7D9FFF8BD00000000E0FFEF402D
:103CA00008B511B1012906D008BD012281898068BB
:103CB000FEF7BCFDF8E7002281898068FEF7B6FDBB
:103CC000F2E7000008B50C4B83ED000A0B4BC3ED87
:103CD000000A21B1012907D0022909D008BD00F549
:103CE000B67000F0E1F8F9E7043000F0CDF9F5E73F
:103CF0002C3000F049FBF1E7BC090020B809002096
:103D000010B52DED028B0446006890ED008AB4EEEC
:103D1000C08AF1EE10FA08D4B1EE488AB4EEC08A37
:103D2000F1EE10FA01DCB0EE408AD0ED017AB1EE8E
:103D3000677AB4EEC87AF1EE10FA0FDCF4EEC87AC6
:103D4000F1EE10FA13D50021FFF7AAFFB0EEC80A72
:103D50002068FFF781FFBDEC028B10BD0121FFF74A
:103D60009FFFB0EEC80A2068FFF776FFF3E7022155
:103D7000FFF796FF9FED020A2068FFF76DFFEAE765
:103D8000000000000000000070B584B00546036923
:103D90000193436902938369039300242CE004EBAD
:103DA0004402D1181C4A02EB8102D2ED007A04AA27
:103DB00002EB830212ED037A27EE877A05EB840289
:103DC000D2ED007A77EE877AC2ED007A0133022BCA
:103DD000E5DD05EB8406D6ED007A77EEA77A17EEDF
:103DE000900AFCF7B1FB0AA3D3E90023FCF72EFDF0
:103DF000FCF7FAFE30600134032C05DC05EB84038C
:103E000000221A600023E2E704B070BDAFF3008027
:103E1000EC51B81E85EBC13FD08C000800000000BB
:103E20002DE9F0412DED028B044610EE100A10EE44
:103E3000908A11EE105AFCF787FB06460F46404663
:103E4000FCF782FB16A3D3E90023FCF7D5FB41EC7A
:103E5000180B41EC100B00F0ABFF53EC102B30466D
:103E60003946FCF7C9FBFCF7BFFE2061B0EE480AFB
:103E7000F0EE680A00F0E4FF53EC102B30463946B0
:103E8000FCF7BAFBFCF7B0FE6061A5612046FFF7C6
:103E90007BFFBDEC028BBDE8F08100BFAFF300807B
:103EA00005A11E1724DF913F90F82D3013B99FED27
:103EB0003A0A704710B52DED028B0446B0EE408AE9
:103EC000F0EE608AFEF752FF636AC31AA26A9A4252
:103ED00046D8C4ED048A38EE680A94ED017A27EEDC
:103EE000007AD4ED057A37EE277A84ED057AD4EDA1
:103EF000036A78EEE66A94F82C303BB9D4ED007A88
:103F000067EEA67A37EE677A84ED057AD4ED057A06
:103F100094ED087AF4EEC77AF1EE10FA25DD84ED1F
:103F2000057A63B394ED008A28EE000A84ED060A50
:103F3000D4ED057A94ED026A66EE266A77EEE67AAB
:103F4000D4ED066A77EEA67AC4ED067AB4EEE77A87
:103F5000F1EE10FA16D584ED067AC4ED038A60629C
:103F600094ED060ABDEC028B10BD94ED076AF4EEE9
:103F7000C67AF1EE10FAD4D584ED056AD1E70023B4
:103F8000A361D5E794ED077AF4EEC77AF1EE10FA63
:103F9000E3D584ED067AE0E700000000B5EEC00A44
:103FA000F1EE10FA24D4F5EEC00AF1EE10FA1FD4A7
:103FB000B5EEC01AF1EE10FA1AD4012914BF00218F
:103FC000012180F82C10D0ED0A7AF8EE677ADFED47
:103FD000106A87EEA67A80ED000A60EE870AC0EDCF
:103FE000010AC1EE077AC0ED027A036B012B00D003
:103FF00070479FED087A37EE400A80ED000A77EEB1
:10400000600AC0ED010A77EE677AC0ED027AEFE749
:1040100000007A4400000000B4EEE00AF1EE10FA6D
:1040200003DC80ED070AC0ED080A70470369C3602E
:10403000D0ED067AC0ED057A90ED087AF4EEC77AF5
:10404000F1EE10FA02DD80ED057A704790ED077A07
:10405000F4EEC77AF1EE10FA01D580ED057A7047DB
:1040600038B50446012914BF0025012590F82D30EC
:1040700083F00103AB4202D084F82D5038BDFFF726
:10408000D5FFF9E70163704710B52DED028B0446AB
:10409000B0EE408AF0EE608AFEF768FE236AC31A2B
:1040A000626A9A4233D838EE680A94ED056A94ED54
:1040B000067A76EE077AD4ED076A77EEA67A67EE8F
:1040C000807A37EE467A36EEA66A37EE467A94ED77
:1040D000016A27EE067A77EE877A94ED027A66EE29
:1040E000876A77EEA67A94ED007A77EE877AC4ED48
:1040F000007A94ED047AF4EEC77AF1EE10FA0BDD53
:1041000084ED007A84ED026A84ED010A206294ED68
:10411000000ABDEC028B10BD94ED037AF4EEC77A71
:10412000F1EE10FAEED584ED007AEBE7B5EEC00AB9
:10413000F1EE10FA1BD4F5EEC00AF1EE10FA16D427
:10414000B5EEC01AF1EE10FA11D4D0ED097AF8EEFE
:10415000677ADFED076A87EEA67A80ED050A60EEE2
:10416000870AC0ED060AC1EE077AC0ED077A7047EC
:1041700000007A44B4EEE00AF1EE10FA03DC80EDC0
:10418000030AC0ED040A7047B4EEE00AF1EE10FA3B
:104190000BDDB4EEC10AF1EE10FA06D870EE607ACB
:1041A00031EE601A87EE810A7047B4EEC10AF1EE73
:1041B00010FA0BDDB4EEE10AF1EE10FA09D871EE57
:1041C000C07A71EEC11A87EEA10A70479FED020A0C
:1041D00070479FED010A70470000000071EE607AA1
:1041E00067EE807A77EEA00A31EEC11A21EE001A4E
:1041F00031EEC11A30EE811AB6EE000A21EE000A45
:104200007047002202604260C2618260C260026147
:1042100042610262426282628263704770EE207A7B
:1042200077EE817AC0ED0B7A30EE600A71EE010A0A
:1042300030EE600A80ED0C0A80ED0D1A90ED027AE6
:1042400067EE877A90ED047A20EE070A77EE807A9F
:1042500090ED057A27EE011A37EE811A80ED061AE5
:10426000D0ED077A37EE811A80ED071A704708B54E
:1042700080ED002AC0ED011A80ED080AC0ED090AA0
:1042800080ED0A1AFFF7CAFF08BD10B59646002256
:1042900021E0C2EBC20363440E3300EB8303C3EDA2
:1042A000017A0CF1010CBCF1060F13DC02F14003A2
:1042B00000EB8303D3ED007A0CF1460300EB83039C
:1042C00093ED017AF4EEC77AF1EE10FAE1DDF0EE4B
:1042D000477ADEE70132062A02DC4FF0000CE2E703
:1042E000002419E00132062A15DCC4EBC403134490
:1042F0000E3300EB8303D3ED017A90ED0E7AF4EEEA
:10430000C77AF1EE10FAEDDDC0ED0E7AC0F8384153
:10431000C0F83C21E6E70134062C01DC0022E2E78C
:10432000D0F83831C3EBC30301EB8303D0F83C2151
:1043300053F8223003EB43039A000EEB8303111D65
:10434000714408329644DEED001A91ED001AD3ED67
:10435000000A90ED0E0AFFF741FF10BD20EE010AA2
:1043600080EE200A7047B4EEC10AF1EE10FA07DCC5
:10437000B4EEE00AF1EE10FA04D5B0EE600A704730
:10438000B0EE410A704700002DE9F0412DED048B9D
:104390000446F0EE608A9FED569AB7EE001AF0EEF2
:1043A000490AFFF7DBFFB0EE408AB7EE001AF0EEE5
:1043B000490AB0EE680A2046FFF7D0FF38EE408A7F
:1043C00084ED028AD4ED048A78EE688AC4ED038A0B
:1043D000002535E005EB4500421C811C454B8F0054
:1043E00003EB8101960003EB82024FEA800803EBA6
:1043F0008003D1ED001A92ED001AD3ED000AB0EE61
:10440000480A2046FFF7C0FE05F1400304EB830392
:1044100083ED000A384B1F441E444344D7ED001A75
:1044200096ED001AD3ED000AB0EE680A2046FFF7B9
:10443000ABFE05F1460304EB830383ED010A01356E
:10444000062DC7DD2D4A2E492046FFF71EFFD4ED6D
:10445000087A30EE270A84ED080AB5EEC00AF1EEBC
:1044600010FA3BD4274A28492046FFF70EFFD4ED27
:10447000097A30EE270A84ED090AB5EEC00AF1EE9A
:1044800010FA2ED4214A22492046FFF7FEFED4ED31
:104490000A7A30EE270A84ED0A0AB5EEC00AF1EE78
:1044A00010FA21D49FED1B1AD4ED090A94ED080AE5
:1044B0002046FFF7B3FE23696361A368236194ED8F
:1044C000001AD4ED010A94ED070A2046FFF74BFFCE
:1044D00084ED070ABDEC048BBDE8F0810023236264
:1044E000C0E700236362CDE70023A362DAE700BFE1
:1044F00000004842600100200C010020B8000020AC
:104500003C030020640000207802002010000020FE
:10451000B40100200000000070477047034B01E029
:10452000A3F5D073024A9342FAD170473C110020A0
:10453000BC0A0020034B00E0143B034A9342FBD12A
:10454000704700BF900A0020400A0020704700001A
:1045500038B52DED028B04469FED138A80ED068A57
:1045600080ED048A0A238362002580F82D50DFED58
:104570000F0A9FED0F0AFFF74FFD01212046FFF7BD
:104580006FFD29462046FFF77DFD0121B0EE481A58
:10459000F0EE480AB0EE480A2046FFF7FFFC6562DD
:1045A0002046BDEC028B38BD0000000000007F43B8
:1045B00000007FC3012800D070474FF6FF73994277
:1045C000FAD12DE9F0412DED048B0327474D002F43
:1045D00050DB2C1D9FED468A85ED018A85ED028A10
:1045E00085ED038A9FED439ADFED438AF0EE490A99
:1045F000B0EE680A2046FFF7BDFDB0EE481AF0EEB7
:10460000480AB0EE480A2046FFF790FD00266E6289
:104610004FF00A08C5F8288005F12C00FFF7F1FDDE
:1046200005F5B67485ED618A85ED5F8AC5F89481DC
:1046300085F89961F0EE490AB0EE680A2046FFF766
:10464000EBFC01212046FFF70BFD31462046FFF72A
:1046500019FD0121B0EE481AF0EE480AB0EE480A02
:104660002046FFF79BFCC5F890612E6005F5D075DC
:10467000013FACE7214A2249002000F094FB0321CE
:10468000204B002908DB00225A60002018829A6023
:10469000DA6014330139F4E7184D2A461A4900202C
:1046A00000F081FB1948002444608460C4602A46FD
:1046B000174900F078FB174804602A46164900F0B5
:1046C00072FB164C2046FFF743FF00236363A3638E
:1046D000E36323646364A3642A461149204600F01F
:1046E00062FBBDEC048BBDE8F08100BFBC0A00207A
:1046F0000000000000007F4300007FC30000002096
:104700001D450008400A002035450008900A002099
:104710004D450008B00A00201B450008401100204C
:104720001945000838B5264C26482061264AA26063
:104730000123A38100256561244B2360244B636022
:10474000A06222620422A284E262224AA261E361A0
:104750002064214AA2634FF48062A2870822626427
:104760001E4921636363A0651D492165A4F8542097
:104770000C22E2651B4AA264E364FCF77AFD6169DE
:104780002069FCF7FBFFE16AA06AFCF7F7FF616CA8
:10479000206CFCF7F3FFE16DA06DFCF7EFFF2B46FB
:1047A0000BE003EB4301CA00054911444FF4D072FA
:1047B00003FB02F20C4881500133032BF1DD38BDBD
:1047C000C009002038080020000C0240F6285D4295
:1047D000CDCCCC3DB89E5542000002407B145342E4
:1047E0000010024000006842BC0A002038B5224D8B
:1047F0000024AC714FF47A73AB802048286001220A
:10480000AA73AB811E4AAA600222AA75AB821D4A16
:104810002A610322AA77AB831B4BAB613C21FCF7D7
:10482000CDFF3C21A868FCF7C9FF3C212869FCF7B3
:10483000C5FF3C21A869FCF7C1FF234608E00E4AEA
:1048400002EBC30203EB83008100104842500133A6
:10485000032BF4DD0D4C2046FFF76AF904F1140038
:10486000FFF766F904F12800FFF762F904F13C0054
:10487000FFF75EF938BD00BF200A0020380700208E
:1048800078070020B8070020F8070020400A002021
:1048900070B52DED048B244D02262E709FED239ACA
:1048A000DFED238A9FED238A234CB0EE492AF0EEF8
:1048B000681AB0EE481AF3EE0E0AB1EE040A04F1DB
:1048C0002C00FFF7D4FC6E70B0EE492AF0EE681AA7
:1048D000B0EE481AF3EE0E0AB1EE040A04F5E670E3
:1048E000FFF7C5FCAE70B0EE492AF0EE681AB0EEE4
:1048F000481AF3EE0E0AB1EE040A04F55B70FFF7F6
:10490000B6FCEE70B0EE492AF0EE681AB0EE481A26
:10491000F3EE0E0AB1EE040A04F20C50FFF7A7FC06
:10492000BDEC048B70BD00BF3C11002014AEA14152
:1049300014AEA1C100000000BC0A002008B5044B61
:10494000044A1A600448036000F0A6F908BD00BFDD
:10495000900A002038090020B00A002008B5FFF7AF
:10496000E1FEFFF743FFFFF793FFFFF7E7FF08BD07
:1049700008B54FF6FF710120FFF71CFE08BD0000CF
:1049800038B52DED028B00241DE04FF4D073104D8F
:1049900003FB04550F4B03EB840393ED008A04EBF8
:1049A00084000D4B03EB8000FFF7E6F8F0EE400AC1
:1049B0000A4B195DB0EE480A2846FFF783F92846EE
:1049C000FFF79EF90134032CDFDDBDEC028B38BD0F
:1049D000BC0A00208C110020400A00203C1100205D
:1049E00010B5FEF7C3F904460B4800F063F9FEF773
:1049F000BDF9031B0A2BF7D9084B93ED111AD3ED20
:104A0000120A93ED100A0648FFF70AFAFFF7B8FFFB
:104A1000FEF7ACF90446E7E7B00A00204011002099
:104A20008C1100208C4600210DE05200D2B2013BD7
:104A3000DBB233B112F0800FF7D08CEA4202D2B26F
:104A4000F5E742540131FF2902DCCAB20823F0E73E
:104A5000704700B586460023184608E011F803C0E9
:104A60008CEA00001EF90000C0B201339BB29342F1
:104A7000F4D35DF804FB000008B50268034B9A42CA
:104A800000D008BDFEF766F9FBE700BF000C004050
:104A900072B6FEE700B595B03022002108A801F0FB
:104AA000C9FB002303930493059306930793019393
:104AB000214A116C41F080511164126C02F0805255
:104AC0000192019A02931D4B1A6842F480421A60C7
:104AD0001B6803F480430293029B012308934FF465
:104AE0008033099302230E934FF480020F92082221
:104AF00010924FF4A872119212930723139308A8EF
:104B0000FDF758FA98B90F23039302230493002367
:104B100005934FF4A05306934FF480530793052158
:104B200003A8FDF7A7FC20B915B05DF804FBFFF75B
:104B3000AFFFFFF7ADFF00BF00380240007000403C
:104B400008B5FEF7EDF8FFF7A5FFFEF71DFBFEF732
:104B50008BFEFEF7C5FBFEF71BFCFEF74DFCFEF7D8
:104B60007DFCFEF7ADFCFEF707FEFEF79FFEFEF7AD
:104B7000B7FEFFF7F3FEFFF733FFFEE770478B78D2
:104B80008370CB78C3700B7903714B7943718B7948
:104B90008371CB79C3717047012800D070474FF6FD
:104BA000FF739942FAD110B5054C07212046FFF753
:104BB00039FF044A0449204600F0F5F810BD00BF53
:104BC000B4110020000000207D4B000810B582B019
:104BD00003685B68274B1B786BB9274B1B78A52BA9
:104BE00001D002B010BD0122224B1A702249234885
:104BF000FCF7DCFFF5E7224B1B88072B22D81E4A67
:104C000012782049CA54012B06D9022B0CD01C4A19
:104C1000138801331380E4E71B49CA540122194465
:104C20001648FCF7C3FFF2E7022217491748FFF7BF
:104C300010FF8DF8070001220DF107010F48FCF766
:104C4000B5FFE4E70C4B1C7800230A4A13700C4AAA
:104C5000138008220B490D48FFF7FBFE844203D066
:104C60000B4801F059FFBCE706490A48FFF787FFE8
:104C7000B7E700BFBE120020BF1200207809002055
:104C8000BC120020B4120020B0110020B41100208A
:104C9000008D0008C0120020054B00221A705A70C7
:104CA0009A70DA701A715A719A71DA71704700BF8E
:104CB000A811002008B50368012231491868FCF7E3
:104CC000BBFF304B5A7993F90530002B0CDB2D4B91
:104CD0001B794BB942B12C4B4FF07F521A642B4ACF
:104CE0009A6400225A640CE07E2A0BD9254B1B796A
:104CF00043B9254B4FF07F521A64254A9A6400222B
:104D00005A6408BD1F4B9A7993F90630002B0BDBD0
:104D10001C4BDB7943B93AB11B4B4FF07F521A64FD
:104D200000229A645A64ECE77E2A0BD9154BDB7992
:104D300043B9154B4FF07F521A64164A9A64002209
:104D40005A64DEE70F4B9B78FF2B09D00D4BDB78C5
:104D5000FF2B0DD00C4B00221A649A645A64D0E7E2
:104D6000094B00221A649A644FF03F425A64C8E724
:104D7000054B00221A649A644FF07C525A64C0E7D3
:104D8000BF120020C0120020401100200000B442D9
:104D90000000B4C20000344308B54FF6FF71012093
:104DA000FFF7FAFE08BD0B460146184601F002BAAD
:104DB00051EC100B204A21F00043934220DD00B556
:104DC0001E4A934285B009DD10EE102A0B46FBF710
:104DD0005BFA41EC100B05B05DF804FB684600F08F
:104DE00077F800F0030001289DED021B9DED000BFC
:104DF0000AD0022816D090B1012000F0FDFFEAE7AA
:104E00009FED0B1B00F08CBA00F0F6FF53EC102B5B
:104E100003F1004300EE903A05B05DF804FB00F0AA
:104E20007FFAD8E700F07CFAF0E700BFAFF300802C
:104E30000000000000000000FB21E93FFFFFEF7FC2
:104E400051EC100B204A21F00043934227DD00B5BE
:104E50001E4A934285B009DD10EE102A0B46FBF77F
:104E600013FA41EC100B05B05DF804FB684600F046
:104E70002FF800F0030001289DED021B9DED000BB3
:104E800012D0022817D090B100F04AFA53EC102B40
:104E900003F1004300EE903A05B05DF804FB9FED8E
:104EA000081B002000F0A8BF00F03AFADBE7012061
:104EB00000F0A2FFD7E7012000F09EFFE6E700BF69
:104EC0000000000000000000FB21E93FFFFFEF7F32
:104ED0002DE9F04F53EC102B2DED048B904923F06E
:104EE00000458D428BB0044640F38C808D498D4245
:104EF0001F462BDC002F194610EE100A7EA3D3E9C3
:104F0000002340F3B681FBF7BFF9874B9D428046F3
:104F1000894600F08F807AA3D3E90023FBF7B4F928
:104F200002460B46C4E9002340464946FBF7ACF96C
:104F300073A3D3E90023FBF7A7F9C4E90201012613
:104F400030460BB0BDEC048BBDE8F08F77498D4245
:104F500040F3928076498D4261DC2E15A6F216460A
:104F600010EE100AA5EB065190468946FBF7F4FDBA
:104F7000FBF7D8FA02460B4640464946CDE90423E2
:104F8000FBF782F96B4B0022FBF736FB8946804624
:104F9000FBF7E2FD0546FBF7C5FA02460B46404625
:104FA0004946CDE90623FBF76FF9624B0022FBF778
:104FB00023FB02460B46CDE9082300220023FBF722
:104FC00083FD002800F05381002D0CBF0123022334
:104FD000594A0192022200922146324604A800F06A
:104FE000DFFA002F0646ABDA6168226801F1004360
:104FF000E168C4E90023A26801F10043C4E9022387
:1050000046429DE7002000210026C4E90201304607
:1050100084ED000B0BB0BDEC048BBDE8F08F10EEFF
:10502000100A1946FBF730F90026C4E90201C4E969
:10503000000185E734A3D3E90023FBF725F934A366
:10504000D3E9002380468946FBF71EF902460B464A
:10505000C4E9002340464946FBF716F92CA3D3E9DF
:105060000023FBF711F90126C4E9020130460BB019
:10507000BDEC048BBDE8F08F00F07CFF59EC108B89
:1050800010EE100A24A3D3E900234946FBF7B4FA33
:105090002A4B0022FBF7FAF8FBF75EFD0646FBF70A
:1050A00041FA02460B4643EC182B13A3D3E9002325
:1050B000B0EE489AF0EE689AFBF79EFA02460B466D
:1050C00040464946FBF7E0F80DA3D3E900238246AA
:1050D0008B4651EC180BFBF78FFA1F2E41EC180B87
:1050E00030DC174B721E53F82230AB422AD00246F6
:1050F0000B469BE0AFF3008000004054FB21F93FDA
:105100003163621A61B4D03D0000601A61B4D03DD1
:105110007370032E8A19A33B83C8C96D305FE43FC7
:10512000FB21E93F7BD90240FB21F93FFB213941BB
:10513000FFFFEF7F00007041888D00080000E03F16
:10514000088D00082B150393504653EC182B594635
:10515000FBF79AF8C1F30A53C3EB1555102D80469F
:10516000894669DD64A3D3E9002351EC190BFBF7F1
:1051700043FA8046894642464B4650465946FBF71D
:1051800083F802460B465046594692469B46FBF72B
:105190007BF842464B46FBF777F859A3D3E9002347
:1051A0008046894651EC190BFBF726FA42464B46DE
:1051B000FBF76AF802460B465046594643EC182B5B
:1051C000FBF762F8039AC1F30A53D31A312B8046D6
:1051D000894631DD4DA3D3E9002351EC190BFBF7D0
:1051E0000BFA8046894642464B4650465946FBF7E5
:1051F0004BF802460B465046594692469B46FBF7F3
:1052000043F842464B46FBF73FF842A3D3E900235D
:105210008046894651EC190BFBF7EEF942464B46A6
:10522000FBF732F802460B4643EC182B5046594622
:10523000FBF72AF88046894642464B46C4E9008976
:1052400050465946FBF720F853EC182BFBF71CF897
:10525000002FC4E90201BFF673AE09F10043C4E9AF
:10526000008301F10043C4E90203764268E60323A8
:10527000AEE6FBF70BF8244B9D428046894616D0DC
:105280001BA3D3E90023FBF701F802460B46C4E950
:10529000002340464946FAF7F7FF15A3D3E9002358
:1052A000FAF7F4FF4FF0FF36C4E9020148E612A313
:1052B000D3E90023FAF7EAFF11A3D3E900238046DC
:1052C0008946FAF7E3FF02460B46C4E9002340464D
:1052D0004946FAF7D9FF0AA3D3E90023FAF7D6FF24
:1052E0004FF0FF36C4E902012AE600BFAFF30080A9
:1052F0003163621A61B4D03D0000601A61B4D03DE0
:105300007370032E8A19A33BFB21F93F0000002E86
:105310008A19A33BC14920259A837B3900000000EC
:105320002DE9F84F57EC106B27F00049B9F1795F80
:105330002DED048B5BEC11AB71DA10EE100A3946DF
:10534000FBF70AFC002800F0F68032463B46304668
:105350003946FBF751F97CA3D3E9002304460D46F7
:10536000FBF74AF97AA3D3E90023FAF78FFF224625
:105370002B46FBF741F978A3D3E90023FAF784FF22
:1053800022462B46FBF738F975A3D3E90023FAF739
:105390007DFF22462B46FBF72FF973A3D3E90023A9
:1053A000FAF772FF22462B46FBF726F970A3D3E9E2
:1053B0000023FAF76BFF22462B46FBF71DF941EC61
:1053C000180B714B002220462946FBF715F953ECC8
:1053D000182B8046894620462946FBF70DF9524690
:1053E0005B4604460D4630463946FBF705F9024652
:1053F0000B4620462946FAF747FF02460B46404631
:105400004946FAF741FF02460B4600205F49FAF78A
:105410003BFFBDEC048B41EC100BBDE8F88F10EEA8
:10542000102A10EE100A3B463946FBF7E5F846A372
:10543000D3E9002304460D46FBF7DEF844A3D3E985
:105440000023FAF723FF22462B46FBF7D5F842A3A9
:10545000D3E90023FAF718FF22462B46FBF7CCF8D6
:105460003FA3D3E90023FAF711FF22462B46FBF7AF
:10547000C3F83DA3D3E90023FAF706FF22462B46E3
:10548000FBF7BAF83AA3D3E90023FAF7FFFE2B465D
:105490002246FBF7B1F83E4B994541EC180B90DDE5
:1054A0003C4B99453CDC0022A9F50013374900200C
:1054B00090469946FAF7E8FE41EC190B324B002270
:1054C00020462946FBF798F842464B46FAF7DCFEA1
:1054D00053EC182B8046894620462946FBF78CF86A
:1054E00052465B4604460D4630463946FBF784F883
:1054F00002460B4620462946FAF7C6FE02460B46F0
:1055000040464946FAF7C0FE02460B4651EC190BDD
:10551000FAF7BAFEBDEC048B41EC100BBDE8F88F36
:105520009FED157BDFF87090B0EE479AF0EE679A2A
:105530004FF00008C2E7BDEC048B9FED110BBDE8F6
:10554000F88F00BFAFF30080D43888BEE9FAA8BD59
:10555000C4B1B4BD9EEE213EAD529C804F7E923EC2
:105560009015CB19A001FA3E7751C1166CC1563F78
:105570004C5555555555A53F000000000000E73F2C
:10558000000000000000F03F0000E03F0000F03F9E
:105590003233D33F0000E93F0000D23F000000005B
:1055A0002DE9F04FADF5197D1C4608930B91BB4BCF
:1055B000A299049053F821100591631E12F1140F63
:1055C0000393C0F24B83B649D31E81FB0301DB1763
:1055D000C3EBA10307930133A3EB8303DB00D318D1
:1055E0000693079A039BD41A059AD6181AD4013643
:1055F000A39F264420AD4FF000084FF0000908E0BB
:1056000057F82400FAF78EFF0134B442E5E80201AE
:1056100008D0002CF4DA013440464946B442E5E8AB
:105620000201F6D1059B002BC0F2C883089BDDF870
:105630000C90DA000292059A1A440192049A20A969
:1056400001EBC30A0DF5E07B02EBC308039B002BC3
:10565000C0F2A981049E57460024002577E9022361
:10566000F6E80201FAF7C8FF02460B462046294633
:10567000FAF70CFE464504460D46EFD1019B09F1B1
:1056800001099945EBE802450AF1080ADED1049ABE
:10569000029B13449B46059B0BA901EB83020CA9BB
:1056A0000A921A4601EB8303083B09930192019A7F
:1056B00098A901EBC203002A53E9284529DD0DF51D
:1056C000E07A0AEBC2080DF13009764B0022204641
:1056D0002946FAF791FFFBF73FFAFAF723FF724BDF
:1056E000002206460F46FAF787FF02460B46204681
:1056F0002946FAF7C9FDFBF72FFA78E9022349F8A2
:10570000040B39463046FAF7C1FDD04504460D4634
:10571000DBD1DDF8189045EC104B484600F0B8FCA2
:1057200055EC104B00224FF07F5310EE100A294623
:10573000FAF762FF41EC100B00F026FC5B4B51ECDA
:10574000100B0022FAF758FF02460B462046294666
:10575000FAF79AFD0D460446FBF7FEF98046FAF784
:10576000E1FE0B46024629462046FAF78DFD4B46E0
:10577000002B06460F4640F39B80019A511E0CAA4F
:10578000C9F1180352F8212042FA03F000FA03F39A
:10579000D31AC9F117050CAA43FA05F5002D42F8F2
:1057A0002130804400F38E800022002330463946A9
:1057B000FBF78AF9002800F05882019B059A03F153
:1057C000FF3A524510DC03F180430CAA013B0A98D2
:1057D00002EB8303002253F80419834242EA0102D8
:1057E000F9D1002A40F0E280059B0CAA013B52F857
:1057F0002330002B40F0D280099A012352F804197B
:1058000001330029FAD0019AD3180293531C994608
:10581000019A08990A449046079A02EB030A0AF192
:10582000804AA39A0AF1FF3A02EB8A0A20AA02EB05
:10583000C80870AA02EBC30301935AF8040FFAF7E1
:1058400071FE0B46039902460029C8E9002347462A
:1058500008F108081EDB049E0024002501E077E91A
:105860000223F6E80201FAF7C7FE02460B4620467D
:105870002946FAF70BFD5E4504460D46EFD1019B24
:10588000E3E802450193029B09F101099945D4DD42
:1058900001930CE700240025F1E700BFD08E00083B
:1058A000ABAAAA2A0000703E000070410000204010
:1058B0006BD1019B0CAA013B52F82350ED15002D32
:1058C0007FF772AF019B002B08F1010840F3CB81F9
:1058D0000C9C002C51D1019B012B20D00CAB012240
:1058E00053F8044F002C4BD0531C0CA9C4F1807406
:1058F00041F822400199994210DD0CAA0CA852F8F7
:10590000232000EB830300EB81006FF07F4100E078
:105910001A688A1A43F8042B8342F9D10124069BA2
:10592000002B0EDD012B00F06C81022B09D1019BB5
:105930005A1E0CAB0CA953F82230C3F3150341F8DF
:105940002230022D7FF430AF32463B46B64900206C
:10595000FAF79AFC06460F46002C3FF425AF06984E
:105960009FEDAD0B00F094FB3046394653EC102B05
:10597000FAF78AFC06460F4616E701230022B4E731
:10598000019901328A42ABD1C9E7A84B0022FBF74B
:10599000B9F8002840F05081054605E7019B013326
:1059A0009946029334E70024002567E6069B039599
:1059B000A3F118020CABCDF81C8053F82A300692E4
:1059C00073B9019B03F18043023B0CA901EB8303F4
:1059D00053F804190AF1FF3A183A0029F8D0069250
:1059E0009FED8D0B069800F053FBBAF1000F55ECBC
:1059F000104BC0F2D98170AB03EBCA0B0CAA0AF1B1
:105A00000103069302EB8306DFF824924FEACA03F0
:105A100004930BF108074FF0000856F8040DFAF74D
:105A200081FD22462B46FAF7E7FD4B4667E9020166
:105A3000424620462946FAF7DFFD0CAB9E4204465B
:105A40000D46EAD148ABCDE9013ADDF814A0BAF130
:105A5000000F4FF000092CDB71A3D3E90023DFF81E
:105A6000D4815F4600260024002503E0B14510DB09
:105A7000F8E80223F7E80201FAF7BEFD02460B46FA
:105A800020462946FAF702FC0136B24504460D4687
:105A9000ECDA019B029A03EBC9034A45C3E90045CE
:105AA000ABF1080B09F1010306D0BAF1000F9946DA
:105AB000D2DA00240025ECE7A29BDDF808A0022B37
:105AC0001EDC002B00F3078113D1049C019D0834D8
:105AD0002C440020002174E90223FAF7D7FBA542E9
